{
	"contracts/Basic_Fundme/PriceConverter.sol": {
		"PriceConverter": {
			"abi": [
				{
					"inputs": [
						{
							"internalType": "uint256",
							"name": "ethAmount",
							"type": "uint256"
						}
					],
					"name": "getConversrionRate",
					"outputs": [
						{
							"internalType": "uint256",
							"name": "",
							"type": "uint256"
						}
					],
					"stateMutability": "view",
					"type": "function"
				},
				{
					"inputs": [],
					"name": "getPrice",
					"outputs": [
						{
							"internalType": "uint256",
							"name": "",
							"type": "uint256"
						}
					],
					"stateMutability": "view",
					"type": "function"
				},
				{
					"inputs": [],
					"name": "getVersion",
					"outputs": [
						{
							"internalType": "uint256",
							"name": "",
							"type": "uint256"
						}
					],
					"stateMutability": "view",
					"type": "function"
				}
			],
			"devdoc": {
				"kind": "dev",
				"methods": {},
				"version": 1
			},
			"evm": {
				"assembly": "    /* \"contracts/Basic_Fundme/PriceConverter.sol\":161:1041  library PriceConverter{... */\n  dataSize(sub_0)\n  dataOffset(sub_0)\n  0x0b\n  dup3\n  dup3\n  dup3\n  codecopy\n  dup1\n  mload\n  0x00\n  byte\n  0x73\n  eq\n  tag_1\n  jumpi\n  mstore(0x00, 0x4e487b7100000000000000000000000000000000000000000000000000000000)\n  mstore(0x04, 0x00)\n  revert(0x00, 0x24)\ntag_1:\n  mstore(0x00, address)\n  0x73\n  dup2\n  mstore8\n  dup3\n  dup2\n  return\nstop\n\nsub_0: assembly {\n        /* \"contracts/Basic_Fundme/PriceConverter.sol\":161:1041  library PriceConverter{... */\n      eq(address, deployTimeAddress())\n      mstore(0x40, 0x80)\n      jumpi(tag_1, lt(calldatasize, 0x04))\n      shr(0xe0, calldataload(0x00))\n      dup1\n      0x0d8e6e2c\n      eq\n      tag_2\n      jumpi\n      dup1\n      0x98d5fdca\n      eq\n      tag_3\n      jumpi\n      dup1\n      0xe8a9a4c9\n      eq\n      tag_4\n      jumpi\n    tag_1:\n      0x00\n      dup1\n      revert\n        /* \"contracts/Basic_Fundme/PriceConverter.sol\":594:800  function getVersion() public view returns (uint256){... */\n    tag_2:\n      tag_5\n      tag_6\n      jump\t// in\n    tag_5:\n      mload(0x40)\n      tag_7\n      swap2\n      swap1\n      tag_8\n      jump\t// in\n    tag_7:\n      mload(0x40)\n      dup1\n      swap2\n      sub\n      swap1\n      return\n        /* \"contracts/Basic_Fundme/PriceConverter.sol\":193:586  function getPrice() public view returns(uint256){... */\n    tag_3:\n      tag_9\n      tag_10\n      jump\t// in\n    tag_9:\n      mload(0x40)\n      tag_11\n      swap2\n      swap1\n      tag_8\n      jump\t// in\n    tag_11:\n      mload(0x40)\n      dup1\n      swap2\n      sub\n      swap1\n      return\n        /* \"contracts/Basic_Fundme/PriceConverter.sol\":808:1030  function getConversrionRate(uint256 ethAmount) public view returns(uint256){... */\n    tag_4:\n      tag_12\n      0x04\n      dup1\n      calldatasize\n      sub\n      dup2\n      add\n      swap1\n      tag_13\n      swap2\n      swap1\n      tag_14\n      jump\t// in\n    tag_13:\n      tag_15\n      jump\t// in\n    tag_12:\n      mload(0x40)\n      tag_16\n      swap2\n      swap1\n      tag_8\n      jump\t// in\n    tag_16:\n      mload(0x40)\n      dup1\n      swap2\n      sub\n      swap1\n      return\n        /* \"contracts/Basic_Fundme/PriceConverter.sol\":594:800  function getVersion() public view returns (uint256){... */\n    tag_6:\n        /* \"contracts/Basic_Fundme/PriceConverter.sol\":637:644  uint256 */\n      0x00\n        /* \"contracts/Basic_Fundme/PriceConverter.sol\":656:687  AggregatorV3Interface priceFeed */\n      dup1\n        /* \"contracts/Basic_Fundme/PriceConverter.sol\":712:754  0xD4a33860578De61DBAbDc8BFdb98FD742fA7028e */\n      0xd4a33860578de61dbabdc8bfdb98fd742fa7028e\n        /* \"contracts/Basic_Fundme/PriceConverter.sol\":656:755  AggregatorV3Interface priceFeed = AggregatorV3Interface(0xD4a33860578De61DBAbDc8BFdb98FD742fA7028e) */\n      swap1\n      pop\n        /* \"contracts/Basic_Fundme/PriceConverter.sol\":773:782  priceFeed */\n      dup1\n        /* \"contracts/Basic_Fundme/PriceConverter.sol\":773:790  priceFeed.version */\n      0xffffffffffffffffffffffffffffffffffffffff\n      and\n      0x54fd4d50\n        /* \"contracts/Basic_Fundme/PriceConverter.sol\":773:792  priceFeed.version() */\n      mload(0x40)\n      dup2\n      0xffffffff\n      and\n      0xe0\n      shl\n      dup2\n      mstore\n      0x04\n      add\n      0x20\n      mload(0x40)\n      dup1\n      dup4\n      sub\n      dup2\n      dup7\n      dup1\n      extcodesize\n      iszero\n      dup1\n      iszero\n      tag_18\n      jumpi\n      0x00\n      dup1\n      revert\n    tag_18:\n      pop\n      gas\n      staticcall\n      iszero\n      dup1\n      iszero\n      tag_20\n      jumpi\n      returndatasize\n      0x00\n      dup1\n      returndatacopy\n      revert(0x00, returndatasize)\n    tag_20:\n      pop\n      pop\n      pop\n      pop\n      mload(0x40)\n      returndatasize\n      not(0x1f)\n      0x1f\n      dup3\n      add\n      and\n      dup3\n      add\n      dup1\n      0x40\n      mstore\n      pop\n      dup2\n      add\n      swap1\n      tag_21\n      swap2\n      swap1\n      tag_22\n      jump\t// in\n    tag_21:\n        /* \"contracts/Basic_Fundme/PriceConverter.sol\":766:792  return priceFeed.version() */\n      swap2\n      pop\n      pop\n        /* \"contracts/Basic_Fundme/PriceConverter.sol\":594:800  function getVersion() public view returns (uint256){... */\n      swap1\n      jump\t// out\n        /* \"contracts/Basic_Fundme/PriceConverter.sol\":193:586  function getPrice() public view returns(uint256){... */\n    tag_10:\n        /* \"contracts/Basic_Fundme/PriceConverter.sol\":233:240  uint256 */\n      0x00\n        /* \"contracts/Basic_Fundme/PriceConverter.sol\":330:361  AggregatorV3Interface priceFeed */\n      dup1\n        /* \"contracts/Basic_Fundme/PriceConverter.sol\":386:428  0xD4a33860578De61DBAbDc8BFdb98FD742fA7028e */\n      0xd4a33860578de61dbabdc8bfdb98fd742fa7028e\n        /* \"contracts/Basic_Fundme/PriceConverter.sol\":330:429  AggregatorV3Interface priceFeed = AggregatorV3Interface(0xD4a33860578De61DBAbDc8BFdb98FD742fA7028e) */\n      swap1\n      pop\n        /* \"contracts/Basic_Fundme/PriceConverter.sol\":443:452  int price */\n      0x00\n        /* \"contracts/Basic_Fundme/PriceConverter.sol\":459:468  priceFeed */\n      dup2\n        /* \"contracts/Basic_Fundme/PriceConverter.sol\":459:484  priceFeed.latestRoundData */\n      0xffffffffffffffffffffffffffffffffffffffff\n      and\n      0xfeaf968c\n        /* \"contracts/Basic_Fundme/PriceConverter.sol\":459:486  priceFeed.latestRoundData() */\n      mload(0x40)\n      dup2\n      0xffffffff\n      and\n      0xe0\n      shl\n      dup2\n      mstore\n      0x04\n      add\n      0xa0\n      mload(0x40)\n      dup1\n      dup4\n      sub\n      dup2\n      dup7\n      dup1\n      extcodesize\n      iszero\n      dup1\n      iszero\n      tag_24\n      jumpi\n      0x00\n      dup1\n      revert\n    tag_24:\n      pop\n      gas\n      staticcall\n      iszero\n      dup1\n      iszero\n      tag_26\n      jumpi\n      returndatasize\n      0x00\n      dup1\n      returndatacopy\n      revert(0x00, returndatasize)\n    tag_26:\n      pop\n      pop\n      pop\n      pop\n      mload(0x40)\n      returndatasize\n      not(0x1f)\n      0x1f\n      dup3\n      add\n      and\n      dup3\n      add\n      dup1\n      0x40\n      mstore\n      pop\n      dup2\n      add\n      swap1\n      tag_27\n      swap2\n      swap1\n      tag_28\n      jump\t// in\n    tag_27:\n        /* \"contracts/Basic_Fundme/PriceConverter.sol\":440:486  (, int price,,,) = priceFeed.latestRoundData() */\n      pop\n      pop\n      pop\n      swap2\n      pop\n      pop\n        /* \"contracts/Basic_Fundme/PriceConverter.sol\":559:563  1e10 */\n      0x02540be400\n        /* \"contracts/Basic_Fundme/PriceConverter.sol\":551:556  price */\n      dup2\n        /* \"contracts/Basic_Fundme/PriceConverter.sol\":551:563  price * 1e10 */\n      tag_29\n      swap2\n      swap1\n      tag_30\n      jump\t// in\n    tag_29:\n        /* \"contracts/Basic_Fundme/PriceConverter.sol\":536:564  return uint256(price * 1e10) */\n      swap3\n      pop\n      pop\n      pop\n        /* \"contracts/Basic_Fundme/PriceConverter.sol\":193:586  function getPrice() public view returns(uint256){... */\n      swap1\n      jump\t// out\n        /* \"contracts/Basic_Fundme/PriceConverter.sol\":808:1030  function getConversrionRate(uint256 ethAmount) public view returns(uint256){... */\n    tag_15:\n        /* \"contracts/Basic_Fundme/PriceConverter.sol\":875:882  uint256 */\n      0x00\n        /* \"contracts/Basic_Fundme/PriceConverter.sol\":897:913  uint256 ethPrice */\n      dup1\n        /* \"contracts/Basic_Fundme/PriceConverter.sol\":916:926  getPrice() */\n      tag_32\n        /* \"contracts/Basic_Fundme/PriceConverter.sol\":916:924  getPrice */\n      tag_10\n        /* \"contracts/Basic_Fundme/PriceConverter.sol\":916:926  getPrice() */\n      jump\t// in\n    tag_32:\n        /* \"contracts/Basic_Fundme/PriceConverter.sol\":897:926  uint256 ethPrice = getPrice() */\n      swap1\n      pop\n        /* \"contracts/Basic_Fundme/PriceConverter.sol\":937:956  uint ethAmountInUSD */\n      0x00\n        /* \"contracts/Basic_Fundme/PriceConverter.sol\":984:988  1e18 */\n      0x0de0b6b3a7640000\n        /* \"contracts/Basic_Fundme/PriceConverter.sol\":971:980  ethAmount */\n      dup5\n        /* \"contracts/Basic_Fundme/PriceConverter.sol\":960:968  ethPrice */\n      dup4\n        /* \"contracts/Basic_Fundme/PriceConverter.sol\":960:980  ethPrice * ethAmount */\n      tag_33\n      swap2\n      swap1\n      tag_34\n      jump\t// in\n    tag_33:\n        /* \"contracts/Basic_Fundme/PriceConverter.sol\":959:988  (ethPrice * ethAmount) / 1e18 */\n      tag_35\n      swap2\n      swap1\n      tag_36\n      jump\t// in\n    tag_35:\n        /* \"contracts/Basic_Fundme/PriceConverter.sol\":937:988  uint ethAmountInUSD = (ethPrice * ethAmount) / 1e18 */\n      swap1\n      pop\n        /* \"contracts/Basic_Fundme/PriceConverter.sol\":1006:1020  ethAmountInUSD */\n      dup1\n        /* \"contracts/Basic_Fundme/PriceConverter.sol\":999:1020  return ethAmountInUSD */\n      swap3\n      pop\n      pop\n      pop\n        /* \"contracts/Basic_Fundme/PriceConverter.sol\":808:1030  function getConversrionRate(uint256 ethAmount) public view returns(uint256){... */\n      swap2\n      swap1\n      pop\n      jump\t// out\n        /* \"#utility.yul\":7:84   */\n    tag_37:\n        /* \"#utility.yul\":44:51   */\n      0x00\n        /* \"#utility.yul\":73:78   */\n      dup2\n        /* \"#utility.yul\":62:78   */\n      swap1\n      pop\n        /* \"#utility.yul\":7:84   */\n      swap2\n      swap1\n      pop\n      jump\t// out\n        /* \"#utility.yul\":90:216   */\n    tag_38:\n        /* \"#utility.yul\":185:209   */\n      tag_56\n        /* \"#utility.yul\":203:208   */\n      dup2\n        /* \"#utility.yul\":185:209   */\n      tag_37\n      jump\t// in\n    tag_56:\n        /* \"#utility.yul\":180:183   */\n      dup3\n        /* \"#utility.yul\":173:210   */\n      mstore\n        /* \"#utility.yul\":90:216   */\n      pop\n      pop\n      jump\t// out\n        /* \"#utility.yul\":222:460   */\n    tag_8:\n        /* \"#utility.yul\":323:327   */\n      0x00\n        /* \"#utility.yul\":361:363   */\n      0x20\n        /* \"#utility.yul\":350:359   */\n      dup3\n        /* \"#utility.yul\":346:364   */\n      add\n        /* \"#utility.yul\":338:364   */\n      swap1\n      pop\n        /* \"#utility.yul\":374:453   */\n      tag_58\n        /* \"#utility.yul\":450:451   */\n      0x00\n        /* \"#utility.yul\":439:448   */\n      dup4\n        /* \"#utility.yul\":435:452   */\n      add\n        /* \"#utility.yul\":426:432   */\n      dup5\n        /* \"#utility.yul\":374:453   */\n      tag_38\n      jump\t// in\n    tag_58:\n        /* \"#utility.yul\":222:460   */\n      swap3\n      swap2\n      pop\n      pop\n      jump\t// out\n        /* \"#utility.yul\":547:664   */\n    tag_40:\n        /* \"#utility.yul\":656:657   */\n      0x00\n        /* \"#utility.yul\":653:654   */\n      dup1\n        /* \"#utility.yul\":646:658   */\n      revert\n        /* \"#utility.yul\":793:915   */\n    tag_42:\n        /* \"#utility.yul\":866:890   */\n      tag_63\n        /* \"#utility.yul\":884:889   */\n      dup2\n        /* \"#utility.yul\":866:890   */\n      tag_37\n      jump\t// in\n    tag_63:\n        /* \"#utility.yul\":859:864   */\n      dup2\n        /* \"#utility.yul\":856:891   */\n      eq\n        /* \"#utility.yul\":846:909   */\n      tag_64\n      jumpi\n        /* \"#utility.yul\":905:906   */\n      0x00\n        /* \"#utility.yul\":902:903   */\n      dup1\n        /* \"#utility.yul\":895:907   */\n      revert\n        /* \"#utility.yul\":846:909   */\n    tag_64:\n        /* \"#utility.yul\":793:915   */\n      pop\n      jump\t// out\n        /* \"#utility.yul\":921:1060   */\n    tag_43:\n        /* \"#utility.yul\":967:972   */\n      0x00\n        /* \"#utility.yul\":1005:1011   */\n      dup2\n        /* \"#utility.yul\":992:1012   */\n      calldataload\n        /* \"#utility.yul\":983:1012   */\n      swap1\n      pop\n        /* \"#utility.yul\":1021:1054   */\n      tag_66\n        /* \"#utility.yul\":1048:1053   */\n      dup2\n        /* \"#utility.yul\":1021:1054   */\n      tag_42\n      jump\t// in\n    tag_66:\n        /* \"#utility.yul\":921:1060   */\n      swap3\n      swap2\n      pop\n      pop\n      jump\t// out\n        /* \"#utility.yul\":1066:1395   */\n    tag_14:\n        /* \"#utility.yul\":1125:1131   */\n      0x00\n        /* \"#utility.yul\":1174:1176   */\n      0x20\n        /* \"#utility.yul\":1162:1171   */\n      dup3\n        /* \"#utility.yul\":1153:1160   */\n      dup5\n        /* \"#utility.yul\":1149:1172   */\n      sub\n        /* \"#utility.yul\":1145:1177   */\n      slt\n        /* \"#utility.yul\":1142:1261   */\n      iszero\n      tag_68\n      jumpi\n        /* \"#utility.yul\":1180:1259   */\n      tag_69\n      tag_40\n      jump\t// in\n    tag_69:\n        /* \"#utility.yul\":1142:1261   */\n    tag_68:\n        /* \"#utility.yul\":1300:1301   */\n      0x00\n        /* \"#utility.yul\":1325:1378   */\n      tag_70\n        /* \"#utility.yul\":1370:1377   */\n      dup5\n        /* \"#utility.yul\":1361:1367   */\n      dup3\n        /* \"#utility.yul\":1350:1359   */\n      dup6\n        /* \"#utility.yul\":1346:1368   */\n      add\n        /* \"#utility.yul\":1325:1378   */\n      tag_43\n      jump\t// in\n    tag_70:\n        /* \"#utility.yul\":1315:1378   */\n      swap2\n      pop\n        /* \"#utility.yul\":1271:1388   */\n      pop\n        /* \"#utility.yul\":1066:1395   */\n      swap3\n      swap2\n      pop\n      pop\n      jump\t// out\n        /* \"#utility.yul\":1401:1544   */\n    tag_44:\n        /* \"#utility.yul\":1458:1463   */\n      0x00\n        /* \"#utility.yul\":1489:1495   */\n      dup2\n        /* \"#utility.yul\":1483:1496   */\n      mload\n        /* \"#utility.yul\":1474:1496   */\n      swap1\n      pop\n        /* \"#utility.yul\":1505:1538   */\n      tag_72\n        /* \"#utility.yul\":1532:1537   */\n      dup2\n        /* \"#utility.yul\":1505:1538   */\n      tag_42\n      jump\t// in\n    tag_72:\n        /* \"#utility.yul\":1401:1544   */\n      swap3\n      swap2\n      pop\n      pop\n      jump\t// out\n        /* \"#utility.yul\":1550:1901   */\n    tag_22:\n        /* \"#utility.yul\":1620:1626   */\n      0x00\n        /* \"#utility.yul\":1669:1671   */\n      0x20\n        /* \"#utility.yul\":1657:1666   */\n      dup3\n        /* \"#utility.yul\":1648:1655   */\n      dup5\n        /* \"#utility.yul\":1644:1667   */\n      sub\n        /* \"#utility.yul\":1640:1672   */\n      slt\n        /* \"#utility.yul\":1637:1756   */\n      iszero\n      tag_74\n      jumpi\n        /* \"#utility.yul\":1675:1754   */\n      tag_75\n      tag_40\n      jump\t// in\n    tag_75:\n        /* \"#utility.yul\":1637:1756   */\n    tag_74:\n        /* \"#utility.yul\":1795:1796   */\n      0x00\n        /* \"#utility.yul\":1820:1884   */\n      tag_76\n        /* \"#utility.yul\":1876:1883   */\n      dup5\n        /* \"#utility.yul\":1867:1873   */\n      dup3\n        /* \"#utility.yul\":1856:1865   */\n      dup6\n        /* \"#utility.yul\":1852:1874   */\n      add\n        /* \"#utility.yul\":1820:1884   */\n      tag_44\n      jump\t// in\n    tag_76:\n        /* \"#utility.yul\":1810:1884   */\n      swap2\n      pop\n        /* \"#utility.yul\":1766:1894   */\n      pop\n        /* \"#utility.yul\":1550:1901   */\n      swap3\n      swap2\n      pop\n      pop\n      jump\t// out\n        /* \"#utility.yul\":1907:2012   */\n    tag_45:\n        /* \"#utility.yul\":1943:1950   */\n      0x00\n        /* \"#utility.yul\":1983:2005   */\n      0xffffffffffffffffffff\n        /* \"#utility.yul\":1976:1981   */\n      dup3\n        /* \"#utility.yul\":1972:2006   */\n      and\n        /* \"#utility.yul\":1961:2006   */\n      swap1\n      pop\n        /* \"#utility.yul\":1907:2012   */\n      swap2\n      swap1\n      pop\n      jump\t// out\n        /* \"#utility.yul\":2018:2138   */\n    tag_46:\n        /* \"#utility.yul\":2090:2113   */\n      tag_79\n        /* \"#utility.yul\":2107:2112   */\n      dup2\n        /* \"#utility.yul\":2090:2113   */\n      tag_45\n      jump\t// in\n    tag_79:\n        /* \"#utility.yul\":2083:2088   */\n      dup2\n        /* \"#utility.yul\":2080:2114   */\n      eq\n        /* \"#utility.yul\":2070:2132   */\n      tag_80\n      jumpi\n        /* \"#utility.yul\":2128:2129   */\n      0x00\n        /* \"#utility.yul\":2125:2126   */\n      dup1\n        /* \"#utility.yul\":2118:2130   */\n      revert\n        /* \"#utility.yul\":2070:2132   */\n    tag_80:\n        /* \"#utility.yul\":2018:2138   */\n      pop\n      jump\t// out\n        /* \"#utility.yul\":2144:2285   */\n    tag_47:\n        /* \"#utility.yul\":2200:2205   */\n      0x00\n        /* \"#utility.yul\":2231:2237   */\n      dup2\n        /* \"#utility.yul\":2225:2238   */\n      mload\n        /* \"#utility.yul\":2216:2238   */\n      swap1\n      pop\n        /* \"#utility.yul\":2247:2279   */\n      tag_82\n        /* \"#utility.yul\":2273:2278   */\n      dup2\n        /* \"#utility.yul\":2247:2279   */\n      tag_46\n      jump\t// in\n    tag_82:\n        /* \"#utility.yul\":2144:2285   */\n      swap3\n      swap2\n      pop\n      pop\n      jump\t// out\n        /* \"#utility.yul\":2291:2367   */\n    tag_48:\n        /* \"#utility.yul\":2327:2334   */\n      0x00\n        /* \"#utility.yul\":2356:2361   */\n      dup2\n        /* \"#utility.yul\":2345:2361   */\n      swap1\n      pop\n        /* \"#utility.yul\":2291:2367   */\n      swap2\n      swap1\n      pop\n      jump\t// out\n        /* \"#utility.yul\":2373:2493   */\n    tag_49:\n        /* \"#utility.yul\":2445:2468   */\n      tag_85\n        /* \"#utility.yul\":2462:2467   */\n      dup2\n        /* \"#utility.yul\":2445:2468   */\n      tag_48\n      jump\t// in\n    tag_85:\n        /* \"#utility.yul\":2438:2443   */\n      dup2\n        /* \"#utility.yul\":2435:2469   */\n      eq\n        /* \"#utility.yul\":2425:2487   */\n      tag_86\n      jumpi\n        /* \"#utility.yul\":2483:2484   */\n      0x00\n        /* \"#utility.yul\":2480:2481   */\n      dup1\n        /* \"#utility.yul\":2473:2485   */\n      revert\n        /* \"#utility.yul\":2425:2487   */\n    tag_86:\n        /* \"#utility.yul\":2373:2493   */\n      pop\n      jump\t// out\n        /* \"#utility.yul\":2499:2640   */\n    tag_50:\n        /* \"#utility.yul\":2555:2560   */\n      0x00\n        /* \"#utility.yul\":2586:2592   */\n      dup2\n        /* \"#utility.yul\":2580:2593   */\n      mload\n        /* \"#utility.yul\":2571:2593   */\n      swap1\n      pop\n        /* \"#utility.yul\":2602:2634   */\n      tag_88\n        /* \"#utility.yul\":2628:2633   */\n      dup2\n        /* \"#utility.yul\":2602:2634   */\n      tag_49\n      jump\t// in\n    tag_88:\n        /* \"#utility.yul\":2499:2640   */\n      swap3\n      swap2\n      pop\n      pop\n      jump\t// out\n        /* \"#utility.yul\":2646:3617   */\n    tag_28:\n        /* \"#utility.yul\":2749:2755   */\n      0x00\n        /* \"#utility.yul\":2757:2763   */\n      dup1\n        /* \"#utility.yul\":2765:2771   */\n      0x00\n        /* \"#utility.yul\":2773:2779   */\n      dup1\n        /* \"#utility.yul\":2781:2787   */\n      0x00\n        /* \"#utility.yul\":2830:2833   */\n      0xa0\n        /* \"#utility.yul\":2818:2827   */\n      dup7\n        /* \"#utility.yul\":2809:2816   */\n      dup9\n        /* \"#utility.yul\":2805:2828   */\n      sub\n        /* \"#utility.yul\":2801:2834   */\n      slt\n        /* \"#utility.yul\":2798:2918   */\n      iszero\n      tag_90\n      jumpi\n        /* \"#utility.yul\":2837:2916   */\n      tag_91\n      tag_40\n      jump\t// in\n    tag_91:\n        /* \"#utility.yul\":2798:2918   */\n    tag_90:\n        /* \"#utility.yul\":2957:2958   */\n      0x00\n        /* \"#utility.yul\":2982:3045   */\n      tag_92\n        /* \"#utility.yul\":3037:3044   */\n      dup9\n        /* \"#utility.yul\":3028:3034   */\n      dup3\n        /* \"#utility.yul\":3017:3026   */\n      dup10\n        /* \"#utility.yul\":3013:3035   */\n      add\n        /* \"#utility.yul\":2982:3045   */\n      tag_47\n      jump\t// in\n    tag_92:\n        /* \"#utility.yul\":2972:3045   */\n      swap6\n      pop\n        /* \"#utility.yul\":2928:3055   */\n      pop\n        /* \"#utility.yul\":3094:3096   */\n      0x20\n        /* \"#utility.yul\":3120:3183   */\n      tag_93\n        /* \"#utility.yul\":3175:3182   */\n      dup9\n        /* \"#utility.yul\":3166:3172   */\n      dup3\n        /* \"#utility.yul\":3155:3164   */\n      dup10\n        /* \"#utility.yul\":3151:3173   */\n      add\n        /* \"#utility.yul\":3120:3183   */\n      tag_50\n      jump\t// in\n    tag_93:\n        /* \"#utility.yul\":3110:3183   */\n      swap5\n      pop\n        /* \"#utility.yul\":3065:3193   */\n      pop\n        /* \"#utility.yul\":3232:3234   */\n      0x40\n        /* \"#utility.yul\":3258:3322   */\n      tag_94\n        /* \"#utility.yul\":3314:3321   */\n      dup9\n        /* \"#utility.yul\":3305:3311   */\n      dup3\n        /* \"#utility.yul\":3294:3303   */\n      dup10\n        /* \"#utility.yul\":3290:3312   */\n      add\n        /* \"#utility.yul\":3258:3322   */\n      tag_44\n      jump\t// in\n    tag_94:\n        /* \"#utility.yul\":3248:3322   */\n      swap4\n      pop\n        /* \"#utility.yul\":3203:3332   */\n      pop\n        /* \"#utility.yul\":3371:3373   */\n      0x60\n        /* \"#utility.yul\":3397:3461   */\n      tag_95\n        /* \"#utility.yul\":3453:3460   */\n      dup9\n        /* \"#utility.yul\":3444:3450   */\n      dup3\n        /* \"#utility.yul\":3433:3442   */\n      dup10\n        /* \"#utility.yul\":3429:3451   */\n      add\n        /* \"#utility.yul\":3397:3461   */\n      tag_44\n      jump\t// in\n    tag_95:\n        /* \"#utility.yul\":3387:3461   */\n      swap3\n      pop\n        /* \"#utility.yul\":3342:3471   */\n      pop\n        /* \"#utility.yul\":3510:3513   */\n      0x80\n        /* \"#utility.yul\":3537:3600   */\n      tag_96\n        /* \"#utility.yul\":3592:3599   */\n      dup9\n        /* \"#utility.yul\":3583:3589   */\n      dup3\n        /* \"#utility.yul\":3572:3581   */\n      dup10\n        /* \"#utility.yul\":3568:3590   */\n      add\n        /* \"#utility.yul\":3537:3600   */\n      tag_47\n      jump\t// in\n    tag_96:\n        /* \"#utility.yul\":3527:3600   */\n      swap2\n      pop\n        /* \"#utility.yul\":3481:3610   */\n      pop\n        /* \"#utility.yul\":2646:3617   */\n      swap3\n      swap6\n      pop\n      swap3\n      swap6\n      swap1\n      swap4\n      pop\n      jump\t// out\n        /* \"#utility.yul\":3623:3803   */\n    tag_51:\n        /* \"#utility.yul\":3671:3748   */\n      0x4e487b7100000000000000000000000000000000000000000000000000000000\n        /* \"#utility.yul\":3668:3669   */\n      0x00\n        /* \"#utility.yul\":3661:3749   */\n      mstore\n        /* \"#utility.yul\":3768:3772   */\n      0x11\n        /* \"#utility.yul\":3765:3766   */\n      0x04\n        /* \"#utility.yul\":3758:3773   */\n      mstore\n        /* \"#utility.yul\":3792:3796   */\n      0x24\n        /* \"#utility.yul\":3789:3790   */\n      0x00\n        /* \"#utility.yul\":3782:3797   */\n      revert\n        /* \"#utility.yul\":3809:4800   */\n    tag_30:\n        /* \"#utility.yul\":3848:3855   */\n      0x00\n        /* \"#utility.yul\":3871:3890   */\n      tag_99\n        /* \"#utility.yul\":3888:3889   */\n      dup3\n        /* \"#utility.yul\":3871:3890   */\n      tag_48\n      jump\t// in\n    tag_99:\n        /* \"#utility.yul\":3866:3890   */\n      swap2\n      pop\n        /* \"#utility.yul\":3904:3923   */\n      tag_100\n        /* \"#utility.yul\":3921:3922   */\n      dup4\n        /* \"#utility.yul\":3904:3923   */\n      tag_48\n      jump\t// in\n    tag_100:\n        /* \"#utility.yul\":3899:3923   */\n      swap3\n      pop\n        /* \"#utility.yul\":4105:4106   */\n      dup3\n        /* \"#utility.yul\":4037:4103   */\n      0x7fffffffffffffffffffffffffffffffffffffffffffffffffffffffffffffff\n        /* \"#utility.yul\":4033:4107   */\n      div\n        /* \"#utility.yul\":4030:4031   */\n      dup3\n        /* \"#utility.yul\":4027:4108   */\n      gt\n        /* \"#utility.yul\":4022:4023   */\n      0x00\n        /* \"#utility.yul\":4019:4020   */\n      dup5\n        /* \"#utility.yul\":4015:4024   */\n      sgt\n        /* \"#utility.yul\":4011:4012   */\n      0x00\n        /* \"#utility.yul\":4008:4009   */\n      dup5\n        /* \"#utility.yul\":4004:4013   */\n      sgt\n        /* \"#utility.yul\":4000:4025   */\n      and\n        /* \"#utility.yul\":3996:4109   */\n      and\n        /* \"#utility.yul\":3993:4132   */\n      iszero\n      tag_101\n      jumpi\n        /* \"#utility.yul\":4112:4130   */\n      tag_102\n      tag_51\n      jump\t// in\n    tag_102:\n        /* \"#utility.yul\":3993:4132   */\n    tag_101:\n        /* \"#utility.yul\":4316:4317   */\n      dup2\n        /* \"#utility.yul\":4248:4314   */\n      0x8000000000000000000000000000000000000000000000000000000000000000\n        /* \"#utility.yul\":4243:4318   */\n      sdiv\n        /* \"#utility.yul\":4240:4241   */\n      dup4\n        /* \"#utility.yul\":4236:4319   */\n      slt\n        /* \"#utility.yul\":4231:4232   */\n      0x00\n        /* \"#utility.yul\":4228:4229   */\n      dup5\n        /* \"#utility.yul\":4224:4233   */\n      slt\n        /* \"#utility.yul\":4220:4221   */\n      0x00\n        /* \"#utility.yul\":4217:4218   */\n      dup5\n        /* \"#utility.yul\":4213:4222   */\n      sgt\n        /* \"#utility.yul\":4209:4234   */\n      and\n        /* \"#utility.yul\":4205:4320   */\n      and\n        /* \"#utility.yul\":4202:4343   */\n      iszero\n      tag_103\n      jumpi\n        /* \"#utility.yul\":4323:4341   */\n      tag_104\n      tag_51\n      jump\t// in\n    tag_104:\n        /* \"#utility.yul\":4202:4343   */\n    tag_103:\n        /* \"#utility.yul\":4527:4528   */\n      dup3\n        /* \"#utility.yul\":4459:4525   */\n      0x8000000000000000000000000000000000000000000000000000000000000000\n        /* \"#utility.yul\":4454:4529   */\n      sdiv\n        /* \"#utility.yul\":4451:4452   */\n      dup3\n        /* \"#utility.yul\":4447:4530   */\n      slt\n        /* \"#utility.yul\":4442:4443   */\n      0x00\n        /* \"#utility.yul\":4439:4440   */\n      dup5\n        /* \"#utility.yul\":4435:4444   */\n      sgt\n        /* \"#utility.yul\":4431:4432   */\n      0x00\n        /* \"#utility.yul\":4428:4429   */\n      dup5\n        /* \"#utility.yul\":4424:4433   */\n      slt\n        /* \"#utility.yul\":4420:4445   */\n      and\n        /* \"#utility.yul\":4416:4531   */\n      and\n        /* \"#utility.yul\":4413:4554   */\n      iszero\n      tag_105\n      jumpi\n        /* \"#utility.yul\":4534:4552   */\n      tag_106\n      tag_51\n      jump\t// in\n    tag_106:\n        /* \"#utility.yul\":4413:4554   */\n    tag_105:\n        /* \"#utility.yul\":4737:4738   */\n      dup3\n        /* \"#utility.yul\":4669:4735   */\n      0x7fffffffffffffffffffffffffffffffffffffffffffffffffffffffffffffff\n        /* \"#utility.yul\":4664:4739   */\n      sdiv\n        /* \"#utility.yul\":4661:4662   */\n      dup3\n        /* \"#utility.yul\":4657:4740   */\n      slt\n        /* \"#utility.yul\":4652:4653   */\n      0x00\n        /* \"#utility.yul\":4649:4650   */\n      dup5\n        /* \"#utility.yul\":4645:4654   */\n      slt\n        /* \"#utility.yul\":4641:4642   */\n      0x00\n        /* \"#utility.yul\":4638:4639   */\n      dup5\n        /* \"#utility.yul\":4634:4643   */\n      slt\n        /* \"#utility.yul\":4630:4655   */\n      and\n        /* \"#utility.yul\":4626:4741   */\n      and\n        /* \"#utility.yul\":4623:4764   */\n      iszero\n      tag_107\n      jumpi\n        /* \"#utility.yul\":4744:4762   */\n      tag_108\n      tag_51\n      jump\t// in\n    tag_108:\n        /* \"#utility.yul\":4623:4764   */\n    tag_107:\n        /* \"#utility.yul\":4792:4793   */\n      dup3\n        /* \"#utility.yul\":4789:4790   */\n      dup3\n        /* \"#utility.yul\":4785:4794   */\n      mul\n        /* \"#utility.yul\":4774:4794   */\n      swap1\n      pop\n        /* \"#utility.yul\":3809:4800   */\n      swap3\n      swap2\n      pop\n      pop\n      jump\t// out\n        /* \"#utility.yul\":4806:5154   */\n    tag_34:\n        /* \"#utility.yul\":4846:4853   */\n      0x00\n        /* \"#utility.yul\":4869:4889   */\n      tag_110\n        /* \"#utility.yul\":4887:4888   */\n      dup3\n        /* \"#utility.yul\":4869:4889   */\n      tag_37\n      jump\t// in\n    tag_110:\n        /* \"#utility.yul\":4864:4889   */\n      swap2\n      pop\n        /* \"#utility.yul\":4903:4923   */\n      tag_111\n        /* \"#utility.yul\":4921:4922   */\n      dup4\n        /* \"#utility.yul\":4903:4923   */\n      tag_37\n      jump\t// in\n    tag_111:\n        /* \"#utility.yul\":4898:4923   */\n      swap3\n      pop\n        /* \"#utility.yul\":5091:5092   */\n      dup2\n        /* \"#utility.yul\":5023:5089   */\n      0xffffffffffffffffffffffffffffffffffffffffffffffffffffffffffffffff\n        /* \"#utility.yul\":5019:5093   */\n      div\n        /* \"#utility.yul\":5016:5017   */\n      dup4\n        /* \"#utility.yul\":5013:5094   */\n      gt\n        /* \"#utility.yul\":5008:5009   */\n      dup3\n        /* \"#utility.yul\":5001:5010   */\n      iszero\n        /* \"#utility.yul\":4994:5011   */\n      iszero\n        /* \"#utility.yul\":4990:5095   */\n      and\n        /* \"#utility.yul\":4987:5118   */\n      iszero\n      tag_112\n      jumpi\n        /* \"#utility.yul\":5098:5116   */\n      tag_113\n      tag_51\n      jump\t// in\n    tag_113:\n        /* \"#utility.yul\":4987:5118   */\n    tag_112:\n        /* \"#utility.yul\":5146:5147   */\n      dup3\n        /* \"#utility.yul\":5143:5144   */\n      dup3\n        /* \"#utility.yul\":5139:5148   */\n      mul\n        /* \"#utility.yul\":5128:5148   */\n      swap1\n      pop\n        /* \"#utility.yul\":4806:5154   */\n      swap3\n      swap2\n      pop\n      pop\n      jump\t// out\n        /* \"#utility.yul\":5160:5340   */\n    tag_52:\n        /* \"#utility.yul\":5208:5285   */\n      0x4e487b7100000000000000000000000000000000000000000000000000000000\n        /* \"#utility.yul\":5205:5206   */\n      0x00\n        /* \"#utility.yul\":5198:5286   */\n      mstore\n        /* \"#utility.yul\":5305:5309   */\n      0x12\n        /* \"#utility.yul\":5302:5303   */\n      0x04\n        /* \"#utility.yul\":5295:5310   */\n      mstore\n        /* \"#utility.yul\":5329:5333   */\n      0x24\n        /* \"#utility.yul\":5326:5327   */\n      0x00\n        /* \"#utility.yul\":5319:5334   */\n      revert\n        /* \"#utility.yul\":5346:5531   */\n    tag_36:\n        /* \"#utility.yul\":5386:5387   */\n      0x00\n        /* \"#utility.yul\":5403:5423   */\n      tag_116\n        /* \"#utility.yul\":5421:5422   */\n      dup3\n        /* \"#utility.yul\":5403:5423   */\n      tag_37\n      jump\t// in\n    tag_116:\n        /* \"#utility.yul\":5398:5423   */\n      swap2\n      pop\n        /* \"#utility.yul\":5437:5457   */\n      tag_117\n        /* \"#utility.yul\":5455:5456   */\n      dup4\n        /* \"#utility.yul\":5437:5457   */\n      tag_37\n      jump\t// in\n    tag_117:\n        /* \"#utility.yul\":5432:5457   */\n      swap3\n      pop\n        /* \"#utility.yul\":5476:5477   */\n      dup3\n        /* \"#utility.yul\":5466:5501   */\n      tag_118\n      jumpi\n        /* \"#utility.yul\":5481:5499   */\n      tag_119\n      tag_52\n      jump\t// in\n    tag_119:\n        /* \"#utility.yul\":5466:5501   */\n    tag_118:\n        /* \"#utility.yul\":5523:5524   */\n      dup3\n        /* \"#utility.yul\":5520:5521   */\n      dup3\n        /* \"#utility.yul\":5516:5525   */\n      div\n        /* \"#utility.yul\":5511:5525   */\n      swap1\n      pop\n        /* \"#utility.yul\":5346:5531   */\n      swap3\n      swap2\n      pop\n      pop\n      jump\t// out\n\n    auxdata: 0xa2646970667358221220a4ac365a856828e59f69e13ee1c425e3acd76a116e3570847032c95ff9c64ee164736f6c63430008080033\n}\n",
				"bytecode": {
					"linkReferences": {},
					"object": "610649610053600b82828239805160001a607314610046577f4e487b7100000000000000000000000000000000000000000000000000000000600052600060045260246000fd5b30600052607381538281f3fe730000000000000000000000000000000000000000301460806040526004361061004b5760003560e01c80630d8e6e2c1461005057806398d5fdca1461006e578063e8a9a4c91461008c575b600080fd5b6100586100bc565b6040516100659190610265565b60405180910390f35b61007661015a565b6040516100839190610265565b60405180910390f35b6100a660048036038101906100a191906102b1565b610212565b6040516100b39190610265565b60405180910390f35b60008073d4a33860578de61dbabdc8bfdb98fd742fa7028e90508073ffffffffffffffffffffffffffffffffffffffff166354fd4d506040518163ffffffff1660e01b815260040160206040518083038186803b15801561011c57600080fd5b505afa158015610130573d6000803e3d6000fd5b505050506040513d601f19601f8201168201806040525081019061015491906102f3565b91505090565b60008073d4a33860578de61dbabdc8bfdb98fd742fa7028e905060008173ffffffffffffffffffffffffffffffffffffffff1663feaf968c6040518163ffffffff1660e01b815260040160a06040518083038186803b1580156101bc57600080fd5b505afa1580156101d0573d6000803e3d6000fd5b505050506040513d601f19601f820116820180604052508101906101f49190610398565b5050509150506402540be4008161020b9190610442565b9250505090565b60008061021d61015a565b90506000670de0b6b3a764000084836102369190610559565b61024091906105e2565b90508092505050919050565b6000819050919050565b61025f8161024c565b82525050565b600060208201905061027a6000830184610256565b92915050565b600080fd5b61028e8161024c565b811461029957600080fd5b50565b6000813590506102ab81610285565b92915050565b6000602082840312156102c7576102c6610280565b5b60006102d58482850161029c565b91505092915050565b6000815190506102ed81610285565b92915050565b60006020828403121561030957610308610280565b5b6000610317848285016102de565b91505092915050565b600069ffffffffffffffffffff82169050919050565b61033f81610320565b811461034a57600080fd5b50565b60008151905061035c81610336565b92915050565b6000819050919050565b61037581610362565b811461038057600080fd5b50565b6000815190506103928161036c565b92915050565b600080600080600060a086880312156103b4576103b3610280565b5b60006103c28882890161034d565b95505060206103d388828901610383565b94505060406103e4888289016102de565b93505060606103f5888289016102de565b92505060806104068882890161034d565b9150509295509295909350565b7f4e487b7100000000000000000000000000000000000000000000000000000000600052601160045260246000fd5b600061044d82610362565b915061045883610362565b9250827f7fffffffffffffffffffffffffffffffffffffffffffffffffffffffffffffff048211600084136000841316161561049757610496610413565b5b817f800000000000000000000000000000000000000000000000000000000000000005831260008412600084131616156104d4576104d3610413565b5b827f8000000000000000000000000000000000000000000000000000000000000000058212600084136000841216161561051157610510610413565b5b827f7fffffffffffffffffffffffffffffffffffffffffffffffffffffffffffffff058212600084126000841216161561054e5761054d610413565b5b828202905092915050565b60006105648261024c565b915061056f8361024c565b9250817fffffffffffffffffffffffffffffffffffffffffffffffffffffffffffffffff04831182151516156105a8576105a7610413565b5b828202905092915050565b7f4e487b7100000000000000000000000000000000000000000000000000000000600052601260045260246000fd5b60006105ed8261024c565b91506105f88361024c565b925082610608576106076105b3565b5b82820490509291505056fea2646970667358221220a4ac365a856828e59f69e13ee1c425e3acd76a116e3570847032c95ff9c64ee164736f6c63430008080033",
					"opcodes": "PUSH2 0x649 PUSH2 0x53 PUSH1 0xB DUP3 DUP3 DUP3 CODECOPY DUP1 MLOAD PUSH1 0x0 BYTE PUSH1 0x73 EQ PUSH2 0x46 JUMPI PUSH32 0x4E487B7100000000000000000000000000000000000000000000000000000000 PUSH1 0x0 MSTORE PUSH1 0x0 PUSH1 0x4 MSTORE PUSH1 0x24 PUSH1 0x0 REVERT JUMPDEST ADDRESS PUSH1 0x0 MSTORE PUSH1 0x73 DUP2 MSTORE8 DUP3 DUP2 RETURN INVALID PUSH20 0x0 ADDRESS EQ PUSH1 0x80 PUSH1 0x40 MSTORE PUSH1 0x4 CALLDATASIZE LT PUSH2 0x4B JUMPI PUSH1 0x0 CALLDATALOAD PUSH1 0xE0 SHR DUP1 PUSH4 0xD8E6E2C EQ PUSH2 0x50 JUMPI DUP1 PUSH4 0x98D5FDCA EQ PUSH2 0x6E JUMPI DUP1 PUSH4 0xE8A9A4C9 EQ PUSH2 0x8C JUMPI JUMPDEST PUSH1 0x0 DUP1 REVERT JUMPDEST PUSH2 0x58 PUSH2 0xBC JUMP JUMPDEST PUSH1 0x40 MLOAD PUSH2 0x65 SWAP2 SWAP1 PUSH2 0x265 JUMP JUMPDEST PUSH1 0x40 MLOAD DUP1 SWAP2 SUB SWAP1 RETURN JUMPDEST PUSH2 0x76 PUSH2 0x15A JUMP JUMPDEST PUSH1 0x40 MLOAD PUSH2 0x83 SWAP2 SWAP1 PUSH2 0x265 JUMP JUMPDEST PUSH1 0x40 MLOAD DUP1 SWAP2 SUB SWAP1 RETURN JUMPDEST PUSH2 0xA6 PUSH1 0x4 DUP1 CALLDATASIZE SUB DUP2 ADD SWAP1 PUSH2 0xA1 SWAP2 SWAP1 PUSH2 0x2B1 JUMP JUMPDEST PUSH2 0x212 JUMP JUMPDEST PUSH1 0x40 MLOAD PUSH2 0xB3 SWAP2 SWAP1 PUSH2 0x265 JUMP JUMPDEST PUSH1 0x40 MLOAD DUP1 SWAP2 SUB SWAP1 RETURN JUMPDEST PUSH1 0x0 DUP1 PUSH20 0xD4A33860578DE61DBABDC8BFDB98FD742FA7028E SWAP1 POP DUP1 PUSH20 0xFFFFFFFFFFFFFFFFFFFFFFFFFFFFFFFFFFFFFFFF AND PUSH4 0x54FD4D50 PUSH1 0x40 MLOAD DUP2 PUSH4 0xFFFFFFFF AND PUSH1 0xE0 SHL DUP2 MSTORE PUSH1 0x4 ADD PUSH1 0x20 PUSH1 0x40 MLOAD DUP1 DUP4 SUB DUP2 DUP7 DUP1 EXTCODESIZE ISZERO DUP1 ISZERO PUSH2 0x11C JUMPI PUSH1 0x0 DUP1 REVERT JUMPDEST POP GAS STATICCALL ISZERO DUP1 ISZERO PUSH2 0x130 JUMPI RETURNDATASIZE PUSH1 0x0 DUP1 RETURNDATACOPY RETURNDATASIZE PUSH1 0x0 REVERT JUMPDEST POP POP POP POP PUSH1 0x40 MLOAD RETURNDATASIZE PUSH1 0x1F NOT PUSH1 0x1F DUP3 ADD AND DUP3 ADD DUP1 PUSH1 0x40 MSTORE POP DUP2 ADD SWAP1 PUSH2 0x154 SWAP2 SWAP1 PUSH2 0x2F3 JUMP JUMPDEST SWAP2 POP POP SWAP1 JUMP JUMPDEST PUSH1 0x0 DUP1 PUSH20 0xD4A33860578DE61DBABDC8BFDB98FD742FA7028E SWAP1 POP PUSH1 0x0 DUP2 PUSH20 0xFFFFFFFFFFFFFFFFFFFFFFFFFFFFFFFFFFFFFFFF AND PUSH4 0xFEAF968C PUSH1 0x40 MLOAD DUP2 PUSH4 0xFFFFFFFF AND PUSH1 0xE0 SHL DUP2 MSTORE PUSH1 0x4 ADD PUSH1 0xA0 PUSH1 0x40 MLOAD DUP1 DUP4 SUB DUP2 DUP7 DUP1 EXTCODESIZE ISZERO DUP1 ISZERO PUSH2 0x1BC JUMPI PUSH1 0x0 DUP1 REVERT JUMPDEST POP GAS STATICCALL ISZERO DUP1 ISZERO PUSH2 0x1D0 JUMPI RETURNDATASIZE PUSH1 0x0 DUP1 RETURNDATACOPY RETURNDATASIZE PUSH1 0x0 REVERT JUMPDEST POP POP POP POP PUSH1 0x40 MLOAD RETURNDATASIZE PUSH1 0x1F NOT PUSH1 0x1F DUP3 ADD AND DUP3 ADD DUP1 PUSH1 0x40 MSTORE POP DUP2 ADD SWAP1 PUSH2 0x1F4 SWAP2 SWAP1 PUSH2 0x398 JUMP JUMPDEST POP POP POP SWAP2 POP POP PUSH5 0x2540BE400 DUP2 PUSH2 0x20B SWAP2 SWAP1 PUSH2 0x442 JUMP JUMPDEST SWAP3 POP POP POP SWAP1 JUMP JUMPDEST PUSH1 0x0 DUP1 PUSH2 0x21D PUSH2 0x15A JUMP JUMPDEST SWAP1 POP PUSH1 0x0 PUSH8 0xDE0B6B3A7640000 DUP5 DUP4 PUSH2 0x236 SWAP2 SWAP1 PUSH2 0x559 JUMP JUMPDEST PUSH2 0x240 SWAP2 SWAP1 PUSH2 0x5E2 JUMP JUMPDEST SWAP1 POP DUP1 SWAP3 POP POP POP SWAP2 SWAP1 POP JUMP JUMPDEST PUSH1 0x0 DUP2 SWAP1 POP SWAP2 SWAP1 POP JUMP JUMPDEST PUSH2 0x25F DUP2 PUSH2 0x24C JUMP JUMPDEST DUP3 MSTORE POP POP JUMP JUMPDEST PUSH1 0x0 PUSH1 0x20 DUP3 ADD SWAP1 POP PUSH2 0x27A PUSH1 0x0 DUP4 ADD DUP5 PUSH2 0x256 JUMP JUMPDEST SWAP3 SWAP2 POP POP JUMP JUMPDEST PUSH1 0x0 DUP1 REVERT JUMPDEST PUSH2 0x28E DUP2 PUSH2 0x24C JUMP JUMPDEST DUP2 EQ PUSH2 0x299 JUMPI PUSH1 0x0 DUP1 REVERT JUMPDEST POP JUMP JUMPDEST PUSH1 0x0 DUP2 CALLDATALOAD SWAP1 POP PUSH2 0x2AB DUP2 PUSH2 0x285 JUMP JUMPDEST SWAP3 SWAP2 POP POP JUMP JUMPDEST PUSH1 0x0 PUSH1 0x20 DUP3 DUP5 SUB SLT ISZERO PUSH2 0x2C7 JUMPI PUSH2 0x2C6 PUSH2 0x280 JUMP JUMPDEST JUMPDEST PUSH1 0x0 PUSH2 0x2D5 DUP5 DUP3 DUP6 ADD PUSH2 0x29C JUMP JUMPDEST SWAP2 POP POP SWAP3 SWAP2 POP POP JUMP JUMPDEST PUSH1 0x0 DUP2 MLOAD SWAP1 POP PUSH2 0x2ED DUP2 PUSH2 0x285 JUMP JUMPDEST SWAP3 SWAP2 POP POP JUMP JUMPDEST PUSH1 0x0 PUSH1 0x20 DUP3 DUP5 SUB SLT ISZERO PUSH2 0x309 JUMPI PUSH2 0x308 PUSH2 0x280 JUMP JUMPDEST JUMPDEST PUSH1 0x0 PUSH2 0x317 DUP5 DUP3 DUP6 ADD PUSH2 0x2DE JUMP JUMPDEST SWAP2 POP POP SWAP3 SWAP2 POP POP JUMP JUMPDEST PUSH1 0x0 PUSH10 0xFFFFFFFFFFFFFFFFFFFF DUP3 AND SWAP1 POP SWAP2 SWAP1 POP JUMP JUMPDEST PUSH2 0x33F DUP2 PUSH2 0x320 JUMP JUMPDEST DUP2 EQ PUSH2 0x34A JUMPI PUSH1 0x0 DUP1 REVERT JUMPDEST POP JUMP JUMPDEST PUSH1 0x0 DUP2 MLOAD SWAP1 POP PUSH2 0x35C DUP2 PUSH2 0x336 JUMP JUMPDEST SWAP3 SWAP2 POP POP JUMP JUMPDEST PUSH1 0x0 DUP2 SWAP1 POP SWAP2 SWAP1 POP JUMP JUMPDEST PUSH2 0x375 DUP2 PUSH2 0x362 JUMP JUMPDEST DUP2 EQ PUSH2 0x380 JUMPI PUSH1 0x0 DUP1 REVERT JUMPDEST POP JUMP JUMPDEST PUSH1 0x0 DUP2 MLOAD SWAP1 POP PUSH2 0x392 DUP2 PUSH2 0x36C JUMP JUMPDEST SWAP3 SWAP2 POP POP JUMP JUMPDEST PUSH1 0x0 DUP1 PUSH1 0x0 DUP1 PUSH1 0x0 PUSH1 0xA0 DUP7 DUP9 SUB SLT ISZERO PUSH2 0x3B4 JUMPI PUSH2 0x3B3 PUSH2 0x280 JUMP JUMPDEST JUMPDEST PUSH1 0x0 PUSH2 0x3C2 DUP9 DUP3 DUP10 ADD PUSH2 0x34D JUMP JUMPDEST SWAP6 POP POP PUSH1 0x20 PUSH2 0x3D3 DUP9 DUP3 DUP10 ADD PUSH2 0x383 JUMP JUMPDEST SWAP5 POP POP PUSH1 0x40 PUSH2 0x3E4 DUP9 DUP3 DUP10 ADD PUSH2 0x2DE JUMP JUMPDEST SWAP4 POP POP PUSH1 0x60 PUSH2 0x3F5 DUP9 DUP3 DUP10 ADD PUSH2 0x2DE JUMP JUMPDEST SWAP3 POP POP PUSH1 0x80 PUSH2 0x406 DUP9 DUP3 DUP10 ADD PUSH2 0x34D JUMP JUMPDEST SWAP2 POP POP SWAP3 SWAP6 POP SWAP3 SWAP6 SWAP1 SWAP4 POP JUMP JUMPDEST PUSH32 0x4E487B7100000000000000000000000000000000000000000000000000000000 PUSH1 0x0 MSTORE PUSH1 0x11 PUSH1 0x4 MSTORE PUSH1 0x24 PUSH1 0x0 REVERT JUMPDEST PUSH1 0x0 PUSH2 0x44D DUP3 PUSH2 0x362 JUMP JUMPDEST SWAP2 POP PUSH2 0x458 DUP4 PUSH2 0x362 JUMP JUMPDEST SWAP3 POP DUP3 PUSH32 0x7FFFFFFFFFFFFFFFFFFFFFFFFFFFFFFFFFFFFFFFFFFFFFFFFFFFFFFFFFFFFFFF DIV DUP3 GT PUSH1 0x0 DUP5 SGT PUSH1 0x0 DUP5 SGT AND AND ISZERO PUSH2 0x497 JUMPI PUSH2 0x496 PUSH2 0x413 JUMP JUMPDEST JUMPDEST DUP2 PUSH32 0x8000000000000000000000000000000000000000000000000000000000000000 SDIV DUP4 SLT PUSH1 0x0 DUP5 SLT PUSH1 0x0 DUP5 SGT AND AND ISZERO PUSH2 0x4D4 JUMPI PUSH2 0x4D3 PUSH2 0x413 JUMP JUMPDEST JUMPDEST DUP3 PUSH32 0x8000000000000000000000000000000000000000000000000000000000000000 SDIV DUP3 SLT PUSH1 0x0 DUP5 SGT PUSH1 0x0 DUP5 SLT AND AND ISZERO PUSH2 0x511 JUMPI PUSH2 0x510 PUSH2 0x413 JUMP JUMPDEST JUMPDEST DUP3 PUSH32 0x7FFFFFFFFFFFFFFFFFFFFFFFFFFFFFFFFFFFFFFFFFFFFFFFFFFFFFFFFFFFFFFF SDIV DUP3 SLT PUSH1 0x0 DUP5 SLT PUSH1 0x0 DUP5 SLT AND AND ISZERO PUSH2 0x54E JUMPI PUSH2 0x54D PUSH2 0x413 JUMP JUMPDEST JUMPDEST DUP3 DUP3 MUL SWAP1 POP SWAP3 SWAP2 POP POP JUMP JUMPDEST PUSH1 0x0 PUSH2 0x564 DUP3 PUSH2 0x24C JUMP JUMPDEST SWAP2 POP PUSH2 0x56F DUP4 PUSH2 0x24C JUMP JUMPDEST SWAP3 POP DUP2 PUSH32 0xFFFFFFFFFFFFFFFFFFFFFFFFFFFFFFFFFFFFFFFFFFFFFFFFFFFFFFFFFFFFFFFF DIV DUP4 GT DUP3 ISZERO ISZERO AND ISZERO PUSH2 0x5A8 JUMPI PUSH2 0x5A7 PUSH2 0x413 JUMP JUMPDEST JUMPDEST DUP3 DUP3 MUL SWAP1 POP SWAP3 SWAP2 POP POP JUMP JUMPDEST PUSH32 0x4E487B7100000000000000000000000000000000000000000000000000000000 PUSH1 0x0 MSTORE PUSH1 0x12 PUSH1 0x4 MSTORE PUSH1 0x24 PUSH1 0x0 REVERT JUMPDEST PUSH1 0x0 PUSH2 0x5ED DUP3 PUSH2 0x24C JUMP JUMPDEST SWAP2 POP PUSH2 0x5F8 DUP4 PUSH2 0x24C JUMP JUMPDEST SWAP3 POP DUP3 PUSH2 0x608 JUMPI PUSH2 0x607 PUSH2 0x5B3 JUMP JUMPDEST JUMPDEST DUP3 DUP3 DIV SWAP1 POP SWAP3 SWAP2 POP POP JUMP INVALID LOG2 PUSH5 0x6970667358 0x22 SLT KECCAK256 LOG4 0xAC CALLDATASIZE GAS DUP6 PUSH9 0x28E59F69E13EE1C425 0xE3 0xAC 0xD7 PUSH11 0x116E3570847032C95FF9C6 0x4E 0xE1 PUSH5 0x736F6C6343 STOP ADDMOD ADDMOD STOP CALLER "
				},
				"gasEstimates": {
					"creation": {
						"codeDepositCost": "321800",
						"executionCost": "387",
						"totalCost": "322187"
					},
					"external": {
						"getConversrionRate(uint256)": "infinite",
						"getPrice()": "infinite",
						"getVersion()": "infinite"
					}
				},
				"methodIdentifiers": {
					"getConversrionRate(uint256)": "e8a9a4c9",
					"getPrice()": "98d5fdca",
					"getVersion()": "0d8e6e2c"
				}
			},
			"storageLayout": {
				"storage": [],
				"types": null
			},
			"userdoc": {
				"kind": "user",
				"methods": {},
				"version": 1
			}
		}
	}
}