{
	"contracts/Basic_Fundme/FundMe.sol": {
		"FundMe": {
			"abi": [
				{
					"inputs": [
						{
							"internalType": "address",
							"name": "",
							"type": "address"
						}
					],
					"name": "addressToAmountFunded",
					"outputs": [
						{
							"internalType": "uint256",
							"name": "",
							"type": "uint256"
						}
					],
					"stateMutability": "view",
					"type": "function"
				},
				{
					"inputs": [],
					"name": "fund",
					"outputs": [],
					"stateMutability": "payable",
					"type": "function"
				},
				{
					"inputs": [
						{
							"internalType": "uint256",
							"name": "",
							"type": "uint256"
						}
					],
					"name": "funders",
					"outputs": [
						{
							"internalType": "address",
							"name": "",
							"type": "address"
						}
					],
					"stateMutability": "view",
					"type": "function"
				},
				{
					"inputs": [
						{
							"internalType": "uint256",
							"name": "ethAmount",
							"type": "uint256"
						}
					],
					"name": "getConversrionRate",
					"outputs": [
						{
							"internalType": "uint256",
							"name": "",
							"type": "uint256"
						}
					],
					"stateMutability": "view",
					"type": "function"
				},
				{
					"inputs": [],
					"name": "getPrice",
					"outputs": [
						{
							"internalType": "uint256",
							"name": "",
							"type": "uint256"
						}
					],
					"stateMutability": "view",
					"type": "function"
				},
				{
					"inputs": [],
					"name": "getVersion",
					"outputs": [
						{
							"internalType": "uint256",
							"name": "",
							"type": "uint256"
						}
					],
					"stateMutability": "view",
					"type": "function"
				},
				{
					"inputs": [],
					"name": "minimumUsd",
					"outputs": [
						{
							"internalType": "uint256",
							"name": "",
							"type": "uint256"
						}
					],
					"stateMutability": "view",
					"type": "function"
				}
			],
			"devdoc": {
				"kind": "dev",
				"methods": {},
				"version": 1
			},
			"evm": {
				"assembly": "    /* \"contracts/Basic_Fundme/FundMe.sol\":221:1728  contract FundMe{... */\n  mstore(0x40, 0x80)\n    /* \"contracts/Basic_Fundme/FundMe.sol\":273:282  50 * 1e18 */\n  0x02b5e3af16b1880000\n    /* \"contracts/Basic_Fundme/FundMe.sol\":245:282  uint256 public minimumUsd = 50 * 1e18 */\n  0x00\n  sstore\n    /* \"contracts/Basic_Fundme/FundMe.sol\":221:1728  contract FundMe{... */\n  callvalue\n  dup1\n  iszero\n  tag_1\n  jumpi\n  0x00\n  dup1\n  revert\ntag_1:\n  pop\n  dataSize(sub_0)\n  dup1\n  dataOffset(sub_0)\n  0x00\n  codecopy\n  0x00\n  return\nstop\n\nsub_0: assembly {\n        /* \"contracts/Basic_Fundme/FundMe.sol\":221:1728  contract FundMe{... */\n      mstore(0x40, 0x80)\n      jumpi(tag_1, lt(calldatasize, 0x04))\n      shr(0xe0, calldataload(0x00))\n      dup1\n      0x98d5fdca\n      gt\n      tag_9\n      jumpi\n      dup1\n      0x98d5fdca\n      eq\n      tag_5\n      jumpi\n      dup1\n      0xb60d4288\n      eq\n      tag_6\n      jumpi\n      dup1\n      0xdc0d3dff\n      eq\n      tag_7\n      jumpi\n      dup1\n      0xe8a9a4c9\n      eq\n      tag_8\n      jumpi\n      jump(tag_1)\n    tag_9:\n      dup1\n      0x098de820\n      eq\n      tag_2\n      jumpi\n      dup1\n      0x0d8e6e2c\n      eq\n      tag_3\n      jumpi\n      dup1\n      0x3e47d6f3\n      eq\n      tag_4\n      jumpi\n    tag_1:\n      0x00\n      dup1\n      revert\n        /* \"contracts/Basic_Fundme/FundMe.sol\":245:282  uint256 public minimumUsd = 50 * 1e18 */\n    tag_2:\n      callvalue\n      dup1\n      iszero\n      tag_10\n      jumpi\n      0x00\n      dup1\n      revert\n    tag_10:\n      pop\n      tag_11\n      tag_12\n      jump\t// in\n    tag_11:\n      mload(0x40)\n      tag_13\n      swap2\n      swap1\n      tag_14\n      jump\t// in\n    tag_13:\n      mload(0x40)\n      dup1\n      swap2\n      sub\n      swap1\n      return\n        /* \"contracts/Basic_Fundme/FundMe.sol\":1258:1464  function getVersion() public view returns (uint256){... */\n    tag_3:\n      callvalue\n      dup1\n      iszero\n      tag_15\n      jumpi\n      0x00\n      dup1\n      revert\n    tag_15:\n      pop\n      tag_16\n      tag_17\n      jump\t// in\n    tag_16:\n      mload(0x40)\n      tag_18\n      swap2\n      swap1\n      tag_14\n      jump\t// in\n    tag_18:\n      mload(0x40)\n      dup1\n      swap2\n      sub\n      swap1\n      return\n        /* \"contracts/Basic_Fundme/FundMe.sol\":322:378  mapping(address => uint256) public addressToAmountFunded */\n    tag_4:\n      callvalue\n      dup1\n      iszero\n      tag_19\n      jumpi\n      0x00\n      dup1\n      revert\n    tag_19:\n      pop\n      tag_20\n      0x04\n      dup1\n      calldatasize\n      sub\n      dup2\n      add\n      swap1\n      tag_21\n      swap2\n      swap1\n      tag_22\n      jump\t// in\n    tag_21:\n      tag_23\n      jump\t// in\n    tag_20:\n      mload(0x40)\n      tag_24\n      swap2\n      swap1\n      tag_14\n      jump\t// in\n    tag_24:\n      mload(0x40)\n      dup1\n      swap2\n      sub\n      swap1\n      return\n        /* \"contracts/Basic_Fundme/FundMe.sol\":857:1250  function getPrice() public view returns(uint256){... */\n    tag_5:\n      callvalue\n      dup1\n      iszero\n      tag_25\n      jumpi\n      0x00\n      dup1\n      revert\n    tag_25:\n      pop\n      tag_26\n      tag_27\n      jump\t// in\n    tag_26:\n      mload(0x40)\n      tag_28\n      swap2\n      swap1\n      tag_14\n      jump\t// in\n    tag_28:\n      mload(0x40)\n      dup1\n      swap2\n      sub\n      swap1\n      return\n        /* \"contracts/Basic_Fundme/FundMe.sol\":387:849  function fund() public payable {... */\n    tag_6:\n      tag_29\n      tag_30\n      jump\t// in\n    tag_29:\n      stop\n        /* \"contracts/Basic_Fundme/FundMe.sol\":291:315  address[] public funders */\n    tag_7:\n      callvalue\n      dup1\n      iszero\n      tag_31\n      jumpi\n      0x00\n      dup1\n      revert\n    tag_31:\n      pop\n      tag_32\n      0x04\n      dup1\n      calldatasize\n      sub\n      dup2\n      add\n      swap1\n      tag_33\n      swap2\n      swap1\n      tag_34\n      jump\t// in\n    tag_33:\n      tag_35\n      jump\t// in\n    tag_32:\n      mload(0x40)\n      tag_36\n      swap2\n      swap1\n      tag_37\n      jump\t// in\n    tag_36:\n      mload(0x40)\n      dup1\n      swap2\n      sub\n      swap1\n      return\n        /* \"contracts/Basic_Fundme/FundMe.sol\":1472:1694  function getConversrionRate(uint256 ethAmount) public view returns(uint256){... */\n    tag_8:\n      callvalue\n      dup1\n      iszero\n      tag_38\n      jumpi\n      0x00\n      dup1\n      revert\n    tag_38:\n      pop\n      tag_39\n      0x04\n      dup1\n      calldatasize\n      sub\n      dup2\n      add\n      swap1\n      tag_40\n      swap2\n      swap1\n      tag_34\n      jump\t// in\n    tag_40:\n      tag_41\n      jump\t// in\n    tag_39:\n      mload(0x40)\n      tag_42\n      swap2\n      swap1\n      tag_14\n      jump\t// in\n    tag_42:\n      mload(0x40)\n      dup1\n      swap2\n      sub\n      swap1\n      return\n        /* \"contracts/Basic_Fundme/FundMe.sol\":245:282  uint256 public minimumUsd = 50 * 1e18 */\n    tag_12:\n      sload(0x00)\n      dup2\n      jump\t// out\n        /* \"contracts/Basic_Fundme/FundMe.sol\":1258:1464  function getVersion() public view returns (uint256){... */\n    tag_17:\n        /* \"contracts/Basic_Fundme/FundMe.sol\":1301:1308  uint256 */\n      0x00\n        /* \"contracts/Basic_Fundme/FundMe.sol\":1320:1351  AggregatorV3Interface priceFeed */\n      dup1\n        /* \"contracts/Basic_Fundme/FundMe.sol\":1376:1418  0xD4a33860578De61DBAbDc8BFdb98FD742fA7028e */\n      0xd4a33860578de61dbabdc8bfdb98fd742fa7028e\n        /* \"contracts/Basic_Fundme/FundMe.sol\":1320:1419  AggregatorV3Interface priceFeed = AggregatorV3Interface(0xD4a33860578De61DBAbDc8BFdb98FD742fA7028e) */\n      swap1\n      pop\n        /* \"contracts/Basic_Fundme/FundMe.sol\":1437:1446  priceFeed */\n      dup1\n        /* \"contracts/Basic_Fundme/FundMe.sol\":1437:1454  priceFeed.version */\n      0xffffffffffffffffffffffffffffffffffffffff\n      and\n      0x54fd4d50\n        /* \"contracts/Basic_Fundme/FundMe.sol\":1437:1456  priceFeed.version() */\n      mload(0x40)\n      dup2\n      0xffffffff\n      and\n      0xe0\n      shl\n      dup2\n      mstore\n      0x04\n      add\n      0x20\n      mload(0x40)\n      dup1\n      dup4\n      sub\n      dup2\n      dup7\n      dup1\n      extcodesize\n      iszero\n      dup1\n      iszero\n      tag_44\n      jumpi\n      0x00\n      dup1\n      revert\n    tag_44:\n      pop\n      gas\n      staticcall\n      iszero\n      dup1\n      iszero\n      tag_46\n      jumpi\n      returndatasize\n      0x00\n      dup1\n      returndatacopy\n      revert(0x00, returndatasize)\n    tag_46:\n      pop\n      pop\n      pop\n      pop\n      mload(0x40)\n      returndatasize\n      not(0x1f)\n      0x1f\n      dup3\n      add\n      and\n      dup3\n      add\n      dup1\n      0x40\n      mstore\n      pop\n      dup2\n      add\n      swap1\n      tag_47\n      swap2\n      swap1\n      tag_48\n      jump\t// in\n    tag_47:\n        /* \"contracts/Basic_Fundme/FundMe.sol\":1430:1456  return priceFeed.version() */\n      swap2\n      pop\n      pop\n        /* \"contracts/Basic_Fundme/FundMe.sol\":1258:1464  function getVersion() public view returns (uint256){... */\n      swap1\n      jump\t// out\n        /* \"contracts/Basic_Fundme/FundMe.sol\":322:378  mapping(address => uint256) public addressToAmountFunded */\n    tag_23:\n      mstore(0x20, 0x02)\n      dup1\n      0x00\n      mstore\n      keccak256(0x00, 0x40)\n      0x00\n      swap2\n      pop\n      swap1\n      pop\n      sload\n      dup2\n      jump\t// out\n        /* \"contracts/Basic_Fundme/FundMe.sol\":857:1250  function getPrice() public view returns(uint256){... */\n    tag_27:\n        /* \"contracts/Basic_Fundme/FundMe.sol\":897:904  uint256 */\n      0x00\n        /* \"contracts/Basic_Fundme/FundMe.sol\":994:1025  AggregatorV3Interface priceFeed */\n      dup1\n        /* \"contracts/Basic_Fundme/FundMe.sol\":1050:1092  0xD4a33860578De61DBAbDc8BFdb98FD742fA7028e */\n      0xd4a33860578de61dbabdc8bfdb98fd742fa7028e\n        /* \"contracts/Basic_Fundme/FundMe.sol\":994:1093  AggregatorV3Interface priceFeed = AggregatorV3Interface(0xD4a33860578De61DBAbDc8BFdb98FD742fA7028e) */\n      swap1\n      pop\n        /* \"contracts/Basic_Fundme/FundMe.sol\":1107:1116  int price */\n      0x00\n        /* \"contracts/Basic_Fundme/FundMe.sol\":1123:1132  priceFeed */\n      dup2\n        /* \"contracts/Basic_Fundme/FundMe.sol\":1123:1148  priceFeed.latestRoundData */\n      0xffffffffffffffffffffffffffffffffffffffff\n      and\n      0xfeaf968c\n        /* \"contracts/Basic_Fundme/FundMe.sol\":1123:1150  priceFeed.latestRoundData() */\n      mload(0x40)\n      dup2\n      0xffffffff\n      and\n      0xe0\n      shl\n      dup2\n      mstore\n      0x04\n      add\n      0xa0\n      mload(0x40)\n      dup1\n      dup4\n      sub\n      dup2\n      dup7\n      dup1\n      extcodesize\n      iszero\n      dup1\n      iszero\n      tag_50\n      jumpi\n      0x00\n      dup1\n      revert\n    tag_50:\n      pop\n      gas\n      staticcall\n      iszero\n      dup1\n      iszero\n      tag_52\n      jumpi\n      returndatasize\n      0x00\n      dup1\n      returndatacopy\n      revert(0x00, returndatasize)\n    tag_52:\n      pop\n      pop\n      pop\n      pop\n      mload(0x40)\n      returndatasize\n      not(0x1f)\n      0x1f\n      dup3\n      add\n      and\n      dup3\n      add\n      dup1\n      0x40\n      mstore\n      pop\n      dup2\n      add\n      swap1\n      tag_53\n      swap2\n      swap1\n      tag_54\n      jump\t// in\n    tag_53:\n        /* \"contracts/Basic_Fundme/FundMe.sol\":1104:1150  (, int price,,,) = priceFeed.latestRoundData() */\n      pop\n      pop\n      pop\n      swap2\n      pop\n      pop\n        /* \"contracts/Basic_Fundme/FundMe.sol\":1223:1227  1e10 */\n      0x02540be400\n        /* \"contracts/Basic_Fundme/FundMe.sol\":1215:1220  price */\n      dup2\n        /* \"contracts/Basic_Fundme/FundMe.sol\":1215:1227  price * 1e10 */\n      tag_55\n      swap2\n      swap1\n      tag_56\n      jump\t// in\n    tag_55:\n        /* \"contracts/Basic_Fundme/FundMe.sol\":1200:1228  return uint256(price * 1e10) */\n      swap3\n      pop\n      pop\n      pop\n        /* \"contracts/Basic_Fundme/FundMe.sol\":857:1250  function getPrice() public view returns(uint256){... */\n      swap1\n      jump\t// out\n        /* \"contracts/Basic_Fundme/FundMe.sol\":387:849  function fund() public payable {... */\n    tag_30:\n        /* \"contracts/Basic_Fundme/FundMe.sol\":572:582  minimumUsd */\n      sload(0x00)\n        /* \"contracts/Basic_Fundme/FundMe.sol\":559:568  msg.value */\n      callvalue\n        /* \"contracts/Basic_Fundme/FundMe.sol\":559:582  msg.value >= minimumUsd */\n      lt\n      iszero\n        /* \"contracts/Basic_Fundme/FundMe.sol\":551:605  require(msg.value >= minimumUsd, \"Didn't send enough\") */\n      tag_58\n      jumpi\n      mload(0x40)\n      0x08c379a000000000000000000000000000000000000000000000000000000000\n      dup2\n      mstore\n      0x04\n      add\n      tag_59\n      swap1\n      tag_60\n      jump\t// in\n    tag_59:\n      mload(0x40)\n      dup1\n      swap2\n      sub\n      swap1\n      revert\n    tag_58:\n        /* \"contracts/Basic_Fundme/FundMe.sol\":763:770  funders */\n      0x01\n        /* \"contracts/Basic_Fundme/FundMe.sol\":776:786  msg.sender */\n      caller\n        /* \"contracts/Basic_Fundme/FundMe.sol\":763:787  funders.push(msg.sender) */\n      swap1\n      dup1\n      0x01\n      dup2\n      sload\n      add\n      dup1\n      dup3\n      sstore\n      dup1\n      swap2\n      pop\n      pop\n      0x01\n      swap1\n      sub\n      swap1\n      0x00\n      mstore\n      keccak256(0x00, 0x20)\n      add\n      0x00\n      swap1\n      swap2\n      swap1\n      swap2\n      swap1\n      swap2\n      0x0100\n      exp\n      dup2\n      sload\n      dup2\n      0xffffffffffffffffffffffffffffffffffffffff\n      mul\n      not\n      and\n      swap1\n      dup4\n      0xffffffffffffffffffffffffffffffffffffffff\n      and\n      mul\n      or\n      swap1\n      sstore\n      pop\n        /* \"contracts/Basic_Fundme/FundMe.sol\":832:841  msg.value */\n      callvalue\n        /* \"contracts/Basic_Fundme/FundMe.sol\":796:817  addressToAmountFunded */\n      0x02\n        /* \"contracts/Basic_Fundme/FundMe.sol\":796:829  addressToAmountFunded[msg.sender] */\n      0x00\n        /* \"contracts/Basic_Fundme/FundMe.sol\":818:828  msg.sender */\n      caller\n        /* \"contracts/Basic_Fundme/FundMe.sol\":796:829  addressToAmountFunded[msg.sender] */\n      0xffffffffffffffffffffffffffffffffffffffff\n      and\n      0xffffffffffffffffffffffffffffffffffffffff\n      and\n      dup2\n      mstore\n      0x20\n      add\n      swap1\n      dup2\n      mstore\n      0x20\n      add\n      0x00\n      keccak256\n        /* \"contracts/Basic_Fundme/FundMe.sol\":796:841  addressToAmountFunded[msg.sender] = msg.value */\n      dup2\n      swap1\n      sstore\n      pop\n        /* \"contracts/Basic_Fundme/FundMe.sol\":387:849  function fund() public payable {... */\n      jump\t// out\n        /* \"contracts/Basic_Fundme/FundMe.sol\":291:315  address[] public funders */\n    tag_35:\n      0x01\n      dup2\n      dup2\n      sload\n      dup2\n      lt\n      tag_62\n      jumpi\n      0x00\n      dup1\n      revert\n    tag_62:\n      swap1\n      0x00\n      mstore\n      keccak256(0x00, 0x20)\n      add\n      0x00\n      swap2\n      pop\n      sload\n      swap1\n      0x0100\n      exp\n      swap1\n      div\n      0xffffffffffffffffffffffffffffffffffffffff\n      and\n      dup2\n      jump\t// out\n        /* \"contracts/Basic_Fundme/FundMe.sol\":1472:1694  function getConversrionRate(uint256 ethAmount) public view returns(uint256){... */\n    tag_41:\n        /* \"contracts/Basic_Fundme/FundMe.sol\":1539:1546  uint256 */\n      0x00\n        /* \"contracts/Basic_Fundme/FundMe.sol\":1561:1577  uint256 ethPrice */\n      dup1\n        /* \"contracts/Basic_Fundme/FundMe.sol\":1580:1590  getPrice() */\n      tag_65\n        /* \"contracts/Basic_Fundme/FundMe.sol\":1580:1588  getPrice */\n      tag_27\n        /* \"contracts/Basic_Fundme/FundMe.sol\":1580:1590  getPrice() */\n      jump\t// in\n    tag_65:\n        /* \"contracts/Basic_Fundme/FundMe.sol\":1561:1590  uint256 ethPrice = getPrice() */\n      swap1\n      pop\n        /* \"contracts/Basic_Fundme/FundMe.sol\":1601:1620  uint ethAmountInUSD */\n      0x00\n        /* \"contracts/Basic_Fundme/FundMe.sol\":1648:1652  1e18 */\n      0x0de0b6b3a7640000\n        /* \"contracts/Basic_Fundme/FundMe.sol\":1635:1644  ethAmount */\n      dup5\n        /* \"contracts/Basic_Fundme/FundMe.sol\":1624:1632  ethPrice */\n      dup4\n        /* \"contracts/Basic_Fundme/FundMe.sol\":1624:1644  ethPrice * ethAmount */\n      tag_66\n      swap2\n      swap1\n      tag_67\n      jump\t// in\n    tag_66:\n        /* \"contracts/Basic_Fundme/FundMe.sol\":1623:1652  (ethPrice * ethAmount) / 1e18 */\n      tag_68\n      swap2\n      swap1\n      tag_69\n      jump\t// in\n    tag_68:\n        /* \"contracts/Basic_Fundme/FundMe.sol\":1601:1652  uint ethAmountInUSD = (ethPrice * ethAmount) / 1e18 */\n      swap1\n      pop\n        /* \"contracts/Basic_Fundme/FundMe.sol\":1670:1684  ethAmountInUSD */\n      dup1\n        /* \"contracts/Basic_Fundme/FundMe.sol\":1663:1684  return ethAmountInUSD */\n      swap3\n      pop\n      pop\n      pop\n        /* \"contracts/Basic_Fundme/FundMe.sol\":1472:1694  function getConversrionRate(uint256 ethAmount) public view returns(uint256){... */\n      swap2\n      swap1\n      pop\n      jump\t// out\n        /* \"#utility.yul\":7:84   */\n    tag_70:\n        /* \"#utility.yul\":44:51   */\n      0x00\n        /* \"#utility.yul\":73:78   */\n      dup2\n        /* \"#utility.yul\":62:78   */\n      swap1\n      pop\n        /* \"#utility.yul\":7:84   */\n      swap2\n      swap1\n      pop\n      jump\t// out\n        /* \"#utility.yul\":90:208   */\n    tag_71:\n        /* \"#utility.yul\":177:201   */\n      tag_97\n        /* \"#utility.yul\":195:200   */\n      dup2\n        /* \"#utility.yul\":177:201   */\n      tag_70\n      jump\t// in\n    tag_97:\n        /* \"#utility.yul\":172:175   */\n      dup3\n        /* \"#utility.yul\":165:202   */\n      mstore\n        /* \"#utility.yul\":90:208   */\n      pop\n      pop\n      jump\t// out\n        /* \"#utility.yul\":214:436   */\n    tag_14:\n        /* \"#utility.yul\":307:311   */\n      0x00\n        /* \"#utility.yul\":345:347   */\n      0x20\n        /* \"#utility.yul\":334:343   */\n      dup3\n        /* \"#utility.yul\":330:348   */\n      add\n        /* \"#utility.yul\":322:348   */\n      swap1\n      pop\n        /* \"#utility.yul\":358:429   */\n      tag_99\n        /* \"#utility.yul\":426:427   */\n      0x00\n        /* \"#utility.yul\":415:424   */\n      dup4\n        /* \"#utility.yul\":411:428   */\n      add\n        /* \"#utility.yul\":402:408   */\n      dup5\n        /* \"#utility.yul\":358:429   */\n      tag_71\n      jump\t// in\n    tag_99:\n        /* \"#utility.yul\":214:436   */\n      swap3\n      swap2\n      pop\n      pop\n      jump\t// out\n        /* \"#utility.yul\":523:640   */\n    tag_73:\n        /* \"#utility.yul\":632:633   */\n      0x00\n        /* \"#utility.yul\":629:630   */\n      dup1\n        /* \"#utility.yul\":622:634   */\n      revert\n        /* \"#utility.yul\":769:895   */\n    tag_75:\n        /* \"#utility.yul\":806:813   */\n      0x00\n        /* \"#utility.yul\":846:888   */\n      0xffffffffffffffffffffffffffffffffffffffff\n        /* \"#utility.yul\":839:844   */\n      dup3\n        /* \"#utility.yul\":835:889   */\n      and\n        /* \"#utility.yul\":824:889   */\n      swap1\n      pop\n        /* \"#utility.yul\":769:895   */\n      swap2\n      swap1\n      pop\n      jump\t// out\n        /* \"#utility.yul\":901:997   */\n    tag_76:\n        /* \"#utility.yul\":938:945   */\n      0x00\n        /* \"#utility.yul\":967:991   */\n      tag_105\n        /* \"#utility.yul\":985:990   */\n      dup3\n        /* \"#utility.yul\":967:991   */\n      tag_75\n      jump\t// in\n    tag_105:\n        /* \"#utility.yul\":956:991   */\n      swap1\n      pop\n        /* \"#utility.yul\":901:997   */\n      swap2\n      swap1\n      pop\n      jump\t// out\n        /* \"#utility.yul\":1003:1125   */\n    tag_77:\n        /* \"#utility.yul\":1076:1100   */\n      tag_107\n        /* \"#utility.yul\":1094:1099   */\n      dup2\n        /* \"#utility.yul\":1076:1100   */\n      tag_76\n      jump\t// in\n    tag_107:\n        /* \"#utility.yul\":1069:1074   */\n      dup2\n        /* \"#utility.yul\":1066:1101   */\n      eq\n        /* \"#utility.yul\":1056:1119   */\n      tag_108\n      jumpi\n        /* \"#utility.yul\":1115:1116   */\n      0x00\n        /* \"#utility.yul\":1112:1113   */\n      dup1\n        /* \"#utility.yul\":1105:1117   */\n      revert\n        /* \"#utility.yul\":1056:1119   */\n    tag_108:\n        /* \"#utility.yul\":1003:1125   */\n      pop\n      jump\t// out\n        /* \"#utility.yul\":1131:1270   */\n    tag_78:\n        /* \"#utility.yul\":1177:1182   */\n      0x00\n        /* \"#utility.yul\":1215:1221   */\n      dup2\n        /* \"#utility.yul\":1202:1222   */\n      calldataload\n        /* \"#utility.yul\":1193:1222   */\n      swap1\n      pop\n        /* \"#utility.yul\":1231:1264   */\n      tag_110\n        /* \"#utility.yul\":1258:1263   */\n      dup2\n        /* \"#utility.yul\":1231:1264   */\n      tag_77\n      jump\t// in\n    tag_110:\n        /* \"#utility.yul\":1131:1270   */\n      swap3\n      swap2\n      pop\n      pop\n      jump\t// out\n        /* \"#utility.yul\":1276:1605   */\n    tag_22:\n        /* \"#utility.yul\":1335:1341   */\n      0x00\n        /* \"#utility.yul\":1384:1386   */\n      0x20\n        /* \"#utility.yul\":1372:1381   */\n      dup3\n        /* \"#utility.yul\":1363:1370   */\n      dup5\n        /* \"#utility.yul\":1359:1382   */\n      sub\n        /* \"#utility.yul\":1355:1387   */\n      slt\n        /* \"#utility.yul\":1352:1471   */\n      iszero\n      tag_112\n      jumpi\n        /* \"#utility.yul\":1390:1469   */\n      tag_113\n      tag_73\n      jump\t// in\n    tag_113:\n        /* \"#utility.yul\":1352:1471   */\n    tag_112:\n        /* \"#utility.yul\":1510:1511   */\n      0x00\n        /* \"#utility.yul\":1535:1588   */\n      tag_114\n        /* \"#utility.yul\":1580:1587   */\n      dup5\n        /* \"#utility.yul\":1571:1577   */\n      dup3\n        /* \"#utility.yul\":1560:1569   */\n      dup6\n        /* \"#utility.yul\":1556:1578   */\n      add\n        /* \"#utility.yul\":1535:1588   */\n      tag_78\n      jump\t// in\n    tag_114:\n        /* \"#utility.yul\":1525:1588   */\n      swap2\n      pop\n        /* \"#utility.yul\":1481:1598   */\n      pop\n        /* \"#utility.yul\":1276:1605   */\n      swap3\n      swap2\n      pop\n      pop\n      jump\t// out\n        /* \"#utility.yul\":1611:1733   */\n    tag_79:\n        /* \"#utility.yul\":1684:1708   */\n      tag_116\n        /* \"#utility.yul\":1702:1707   */\n      dup2\n        /* \"#utility.yul\":1684:1708   */\n      tag_70\n      jump\t// in\n    tag_116:\n        /* \"#utility.yul\":1677:1682   */\n      dup2\n        /* \"#utility.yul\":1674:1709   */\n      eq\n        /* \"#utility.yul\":1664:1727   */\n      tag_117\n      jumpi\n        /* \"#utility.yul\":1723:1724   */\n      0x00\n        /* \"#utility.yul\":1720:1721   */\n      dup1\n        /* \"#utility.yul\":1713:1725   */\n      revert\n        /* \"#utility.yul\":1664:1727   */\n    tag_117:\n        /* \"#utility.yul\":1611:1733   */\n      pop\n      jump\t// out\n        /* \"#utility.yul\":1739:1878   */\n    tag_80:\n        /* \"#utility.yul\":1785:1790   */\n      0x00\n        /* \"#utility.yul\":1823:1829   */\n      dup2\n        /* \"#utility.yul\":1810:1830   */\n      calldataload\n        /* \"#utility.yul\":1801:1830   */\n      swap1\n      pop\n        /* \"#utility.yul\":1839:1872   */\n      tag_119\n        /* \"#utility.yul\":1866:1871   */\n      dup2\n        /* \"#utility.yul\":1839:1872   */\n      tag_79\n      jump\t// in\n    tag_119:\n        /* \"#utility.yul\":1739:1878   */\n      swap3\n      swap2\n      pop\n      pop\n      jump\t// out\n        /* \"#utility.yul\":1884:2213   */\n    tag_34:\n        /* \"#utility.yul\":1943:1949   */\n      0x00\n        /* \"#utility.yul\":1992:1994   */\n      0x20\n        /* \"#utility.yul\":1980:1989   */\n      dup3\n        /* \"#utility.yul\":1971:1978   */\n      dup5\n        /* \"#utility.yul\":1967:1990   */\n      sub\n        /* \"#utility.yul\":1963:1995   */\n      slt\n        /* \"#utility.yul\":1960:2079   */\n      iszero\n      tag_121\n      jumpi\n        /* \"#utility.yul\":1998:2077   */\n      tag_122\n      tag_73\n      jump\t// in\n    tag_122:\n        /* \"#utility.yul\":1960:2079   */\n    tag_121:\n        /* \"#utility.yul\":2118:2119   */\n      0x00\n        /* \"#utility.yul\":2143:2196   */\n      tag_123\n        /* \"#utility.yul\":2188:2195   */\n      dup5\n        /* \"#utility.yul\":2179:2185   */\n      dup3\n        /* \"#utility.yul\":2168:2177   */\n      dup6\n        /* \"#utility.yul\":2164:2186   */\n      add\n        /* \"#utility.yul\":2143:2196   */\n      tag_80\n      jump\t// in\n    tag_123:\n        /* \"#utility.yul\":2133:2196   */\n      swap2\n      pop\n        /* \"#utility.yul\":2089:2206   */\n      pop\n        /* \"#utility.yul\":1884:2213   */\n      swap3\n      swap2\n      pop\n      pop\n      jump\t// out\n        /* \"#utility.yul\":2219:2337   */\n    tag_81:\n        /* \"#utility.yul\":2306:2330   */\n      tag_125\n        /* \"#utility.yul\":2324:2329   */\n      dup2\n        /* \"#utility.yul\":2306:2330   */\n      tag_76\n      jump\t// in\n    tag_125:\n        /* \"#utility.yul\":2301:2304   */\n      dup3\n        /* \"#utility.yul\":2294:2331   */\n      mstore\n        /* \"#utility.yul\":2219:2337   */\n      pop\n      pop\n      jump\t// out\n        /* \"#utility.yul\":2343:2565   */\n    tag_37:\n        /* \"#utility.yul\":2436:2440   */\n      0x00\n        /* \"#utility.yul\":2474:2476   */\n      0x20\n        /* \"#utility.yul\":2463:2472   */\n      dup3\n        /* \"#utility.yul\":2459:2477   */\n      add\n        /* \"#utility.yul\":2451:2477   */\n      swap1\n      pop\n        /* \"#utility.yul\":2487:2558   */\n      tag_127\n        /* \"#utility.yul\":2555:2556   */\n      0x00\n        /* \"#utility.yul\":2544:2553   */\n      dup4\n        /* \"#utility.yul\":2540:2557   */\n      add\n        /* \"#utility.yul\":2531:2537   */\n      dup5\n        /* \"#utility.yul\":2487:2558   */\n      tag_81\n      jump\t// in\n    tag_127:\n        /* \"#utility.yul\":2343:2565   */\n      swap3\n      swap2\n      pop\n      pop\n      jump\t// out\n        /* \"#utility.yul\":2571:2714   */\n    tag_82:\n        /* \"#utility.yul\":2628:2633   */\n      0x00\n        /* \"#utility.yul\":2659:2665   */\n      dup2\n        /* \"#utility.yul\":2653:2666   */\n      mload\n        /* \"#utility.yul\":2644:2666   */\n      swap1\n      pop\n        /* \"#utility.yul\":2675:2708   */\n      tag_129\n        /* \"#utility.yul\":2702:2707   */\n      dup2\n        /* \"#utility.yul\":2675:2708   */\n      tag_79\n      jump\t// in\n    tag_129:\n        /* \"#utility.yul\":2571:2714   */\n      swap3\n      swap2\n      pop\n      pop\n      jump\t// out\n        /* \"#utility.yul\":2720:3071   */\n    tag_48:\n        /* \"#utility.yul\":2790:2796   */\n      0x00\n        /* \"#utility.yul\":2839:2841   */\n      0x20\n        /* \"#utility.yul\":2827:2836   */\n      dup3\n        /* \"#utility.yul\":2818:2825   */\n      dup5\n        /* \"#utility.yul\":2814:2837   */\n      sub\n        /* \"#utility.yul\":2810:2842   */\n      slt\n        /* \"#utility.yul\":2807:2926   */\n      iszero\n      tag_131\n      jumpi\n        /* \"#utility.yul\":2845:2924   */\n      tag_132\n      tag_73\n      jump\t// in\n    tag_132:\n        /* \"#utility.yul\":2807:2926   */\n    tag_131:\n        /* \"#utility.yul\":2965:2966   */\n      0x00\n        /* \"#utility.yul\":2990:3054   */\n      tag_133\n        /* \"#utility.yul\":3046:3053   */\n      dup5\n        /* \"#utility.yul\":3037:3043   */\n      dup3\n        /* \"#utility.yul\":3026:3035   */\n      dup6\n        /* \"#utility.yul\":3022:3044   */\n      add\n        /* \"#utility.yul\":2990:3054   */\n      tag_82\n      jump\t// in\n    tag_133:\n        /* \"#utility.yul\":2980:3054   */\n      swap2\n      pop\n        /* \"#utility.yul\":2936:3064   */\n      pop\n        /* \"#utility.yul\":2720:3071   */\n      swap3\n      swap2\n      pop\n      pop\n      jump\t// out\n        /* \"#utility.yul\":3077:3182   */\n    tag_83:\n        /* \"#utility.yul\":3113:3120   */\n      0x00\n        /* \"#utility.yul\":3153:3175   */\n      0xffffffffffffffffffff\n        /* \"#utility.yul\":3146:3151   */\n      dup3\n        /* \"#utility.yul\":3142:3176   */\n      and\n        /* \"#utility.yul\":3131:3176   */\n      swap1\n      pop\n        /* \"#utility.yul\":3077:3182   */\n      swap2\n      swap1\n      pop\n      jump\t// out\n        /* \"#utility.yul\":3188:3308   */\n    tag_84:\n        /* \"#utility.yul\":3260:3283   */\n      tag_136\n        /* \"#utility.yul\":3277:3282   */\n      dup2\n        /* \"#utility.yul\":3260:3283   */\n      tag_83\n      jump\t// in\n    tag_136:\n        /* \"#utility.yul\":3253:3258   */\n      dup2\n        /* \"#utility.yul\":3250:3284   */\n      eq\n        /* \"#utility.yul\":3240:3302   */\n      tag_137\n      jumpi\n        /* \"#utility.yul\":3298:3299   */\n      0x00\n        /* \"#utility.yul\":3295:3296   */\n      dup1\n        /* \"#utility.yul\":3288:3300   */\n      revert\n        /* \"#utility.yul\":3240:3302   */\n    tag_137:\n        /* \"#utility.yul\":3188:3308   */\n      pop\n      jump\t// out\n        /* \"#utility.yul\":3314:3455   */\n    tag_85:\n        /* \"#utility.yul\":3370:3375   */\n      0x00\n        /* \"#utility.yul\":3401:3407   */\n      dup2\n        /* \"#utility.yul\":3395:3408   */\n      mload\n        /* \"#utility.yul\":3386:3408   */\n      swap1\n      pop\n        /* \"#utility.yul\":3417:3449   */\n      tag_139\n        /* \"#utility.yul\":3443:3448   */\n      dup2\n        /* \"#utility.yul\":3417:3449   */\n      tag_84\n      jump\t// in\n    tag_139:\n        /* \"#utility.yul\":3314:3455   */\n      swap3\n      swap2\n      pop\n      pop\n      jump\t// out\n        /* \"#utility.yul\":3461:3537   */\n    tag_86:\n        /* \"#utility.yul\":3497:3504   */\n      0x00\n        /* \"#utility.yul\":3526:3531   */\n      dup2\n        /* \"#utility.yul\":3515:3531   */\n      swap1\n      pop\n        /* \"#utility.yul\":3461:3537   */\n      swap2\n      swap1\n      pop\n      jump\t// out\n        /* \"#utility.yul\":3543:3663   */\n    tag_87:\n        /* \"#utility.yul\":3615:3638   */\n      tag_142\n        /* \"#utility.yul\":3632:3637   */\n      dup2\n        /* \"#utility.yul\":3615:3638   */\n      tag_86\n      jump\t// in\n    tag_142:\n        /* \"#utility.yul\":3608:3613   */\n      dup2\n        /* \"#utility.yul\":3605:3639   */\n      eq\n        /* \"#utility.yul\":3595:3657   */\n      tag_143\n      jumpi\n        /* \"#utility.yul\":3653:3654   */\n      0x00\n        /* \"#utility.yul\":3650:3651   */\n      dup1\n        /* \"#utility.yul\":3643:3655   */\n      revert\n        /* \"#utility.yul\":3595:3657   */\n    tag_143:\n        /* \"#utility.yul\":3543:3663   */\n      pop\n      jump\t// out\n        /* \"#utility.yul\":3669:3810   */\n    tag_88:\n        /* \"#utility.yul\":3725:3730   */\n      0x00\n        /* \"#utility.yul\":3756:3762   */\n      dup2\n        /* \"#utility.yul\":3750:3763   */\n      mload\n        /* \"#utility.yul\":3741:3763   */\n      swap1\n      pop\n        /* \"#utility.yul\":3772:3804   */\n      tag_145\n        /* \"#utility.yul\":3798:3803   */\n      dup2\n        /* \"#utility.yul\":3772:3804   */\n      tag_87\n      jump\t// in\n    tag_145:\n        /* \"#utility.yul\":3669:3810   */\n      swap3\n      swap2\n      pop\n      pop\n      jump\t// out\n        /* \"#utility.yul\":3816:4787   */\n    tag_54:\n        /* \"#utility.yul\":3919:3925   */\n      0x00\n        /* \"#utility.yul\":3927:3933   */\n      dup1\n        /* \"#utility.yul\":3935:3941   */\n      0x00\n        /* \"#utility.yul\":3943:3949   */\n      dup1\n        /* \"#utility.yul\":3951:3957   */\n      0x00\n        /* \"#utility.yul\":4000:4003   */\n      0xa0\n        /* \"#utility.yul\":3988:3997   */\n      dup7\n        /* \"#utility.yul\":3979:3986   */\n      dup9\n        /* \"#utility.yul\":3975:3998   */\n      sub\n        /* \"#utility.yul\":3971:4004   */\n      slt\n        /* \"#utility.yul\":3968:4088   */\n      iszero\n      tag_147\n      jumpi\n        /* \"#utility.yul\":4007:4086   */\n      tag_148\n      tag_73\n      jump\t// in\n    tag_148:\n        /* \"#utility.yul\":3968:4088   */\n    tag_147:\n        /* \"#utility.yul\":4127:4128   */\n      0x00\n        /* \"#utility.yul\":4152:4215   */\n      tag_149\n        /* \"#utility.yul\":4207:4214   */\n      dup9\n        /* \"#utility.yul\":4198:4204   */\n      dup3\n        /* \"#utility.yul\":4187:4196   */\n      dup10\n        /* \"#utility.yul\":4183:4205   */\n      add\n        /* \"#utility.yul\":4152:4215   */\n      tag_85\n      jump\t// in\n    tag_149:\n        /* \"#utility.yul\":4142:4215   */\n      swap6\n      pop\n        /* \"#utility.yul\":4098:4225   */\n      pop\n        /* \"#utility.yul\":4264:4266   */\n      0x20\n        /* \"#utility.yul\":4290:4353   */\n      tag_150\n        /* \"#utility.yul\":4345:4352   */\n      dup9\n        /* \"#utility.yul\":4336:4342   */\n      dup3\n        /* \"#utility.yul\":4325:4334   */\n      dup10\n        /* \"#utility.yul\":4321:4343   */\n      add\n        /* \"#utility.yul\":4290:4353   */\n      tag_88\n      jump\t// in\n    tag_150:\n        /* \"#utility.yul\":4280:4353   */\n      swap5\n      pop\n        /* \"#utility.yul\":4235:4363   */\n      pop\n        /* \"#utility.yul\":4402:4404   */\n      0x40\n        /* \"#utility.yul\":4428:4492   */\n      tag_151\n        /* \"#utility.yul\":4484:4491   */\n      dup9\n        /* \"#utility.yul\":4475:4481   */\n      dup3\n        /* \"#utility.yul\":4464:4473   */\n      dup10\n        /* \"#utility.yul\":4460:4482   */\n      add\n        /* \"#utility.yul\":4428:4492   */\n      tag_82\n      jump\t// in\n    tag_151:\n        /* \"#utility.yul\":4418:4492   */\n      swap4\n      pop\n        /* \"#utility.yul\":4373:4502   */\n      pop\n        /* \"#utility.yul\":4541:4543   */\n      0x60\n        /* \"#utility.yul\":4567:4631   */\n      tag_152\n        /* \"#utility.yul\":4623:4630   */\n      dup9\n        /* \"#utility.yul\":4614:4620   */\n      dup3\n        /* \"#utility.yul\":4603:4612   */\n      dup10\n        /* \"#utility.yul\":4599:4621   */\n      add\n        /* \"#utility.yul\":4567:4631   */\n      tag_82\n      jump\t// in\n    tag_152:\n        /* \"#utility.yul\":4557:4631   */\n      swap3\n      pop\n        /* \"#utility.yul\":4512:4641   */\n      pop\n        /* \"#utility.yul\":4680:4683   */\n      0x80\n        /* \"#utility.yul\":4707:4770   */\n      tag_153\n        /* \"#utility.yul\":4762:4769   */\n      dup9\n        /* \"#utility.yul\":4753:4759   */\n      dup3\n        /* \"#utility.yul\":4742:4751   */\n      dup10\n        /* \"#utility.yul\":4738:4760   */\n      add\n        /* \"#utility.yul\":4707:4770   */\n      tag_85\n      jump\t// in\n    tag_153:\n        /* \"#utility.yul\":4697:4770   */\n      swap2\n      pop\n        /* \"#utility.yul\":4651:4780   */\n      pop\n        /* \"#utility.yul\":3816:4787   */\n      swap3\n      swap6\n      pop\n      swap3\n      swap6\n      swap1\n      swap4\n      pop\n      jump\t// out\n        /* \"#utility.yul\":4793:4973   */\n    tag_89:\n        /* \"#utility.yul\":4841:4918   */\n      0x4e487b7100000000000000000000000000000000000000000000000000000000\n        /* \"#utility.yul\":4838:4839   */\n      0x00\n        /* \"#utility.yul\":4831:4919   */\n      mstore\n        /* \"#utility.yul\":4938:4942   */\n      0x11\n        /* \"#utility.yul\":4935:4936   */\n      0x04\n        /* \"#utility.yul\":4928:4943   */\n      mstore\n        /* \"#utility.yul\":4962:4966   */\n      0x24\n        /* \"#utility.yul\":4959:4960   */\n      0x00\n        /* \"#utility.yul\":4952:4967   */\n      revert\n        /* \"#utility.yul\":4979:5970   */\n    tag_56:\n        /* \"#utility.yul\":5018:5025   */\n      0x00\n        /* \"#utility.yul\":5041:5060   */\n      tag_156\n        /* \"#utility.yul\":5058:5059   */\n      dup3\n        /* \"#utility.yul\":5041:5060   */\n      tag_86\n      jump\t// in\n    tag_156:\n        /* \"#utility.yul\":5036:5060   */\n      swap2\n      pop\n        /* \"#utility.yul\":5074:5093   */\n      tag_157\n        /* \"#utility.yul\":5091:5092   */\n      dup4\n        /* \"#utility.yul\":5074:5093   */\n      tag_86\n      jump\t// in\n    tag_157:\n        /* \"#utility.yul\":5069:5093   */\n      swap3\n      pop\n        /* \"#utility.yul\":5275:5276   */\n      dup3\n        /* \"#utility.yul\":5207:5273   */\n      0x7fffffffffffffffffffffffffffffffffffffffffffffffffffffffffffffff\n        /* \"#utility.yul\":5203:5277   */\n      div\n        /* \"#utility.yul\":5200:5201   */\n      dup3\n        /* \"#utility.yul\":5197:5278   */\n      gt\n        /* \"#utility.yul\":5192:5193   */\n      0x00\n        /* \"#utility.yul\":5189:5190   */\n      dup5\n        /* \"#utility.yul\":5185:5194   */\n      sgt\n        /* \"#utility.yul\":5181:5182   */\n      0x00\n        /* \"#utility.yul\":5178:5179   */\n      dup5\n        /* \"#utility.yul\":5174:5183   */\n      sgt\n        /* \"#utility.yul\":5170:5195   */\n      and\n        /* \"#utility.yul\":5166:5279   */\n      and\n        /* \"#utility.yul\":5163:5302   */\n      iszero\n      tag_158\n      jumpi\n        /* \"#utility.yul\":5282:5300   */\n      tag_159\n      tag_89\n      jump\t// in\n    tag_159:\n        /* \"#utility.yul\":5163:5302   */\n    tag_158:\n        /* \"#utility.yul\":5486:5487   */\n      dup2\n        /* \"#utility.yul\":5418:5484   */\n      0x8000000000000000000000000000000000000000000000000000000000000000\n        /* \"#utility.yul\":5413:5488   */\n      sdiv\n        /* \"#utility.yul\":5410:5411   */\n      dup4\n        /* \"#utility.yul\":5406:5489   */\n      slt\n        /* \"#utility.yul\":5401:5402   */\n      0x00\n        /* \"#utility.yul\":5398:5399   */\n      dup5\n        /* \"#utility.yul\":5394:5403   */\n      slt\n        /* \"#utility.yul\":5390:5391   */\n      0x00\n        /* \"#utility.yul\":5387:5388   */\n      dup5\n        /* \"#utility.yul\":5383:5392   */\n      sgt\n        /* \"#utility.yul\":5379:5404   */\n      and\n        /* \"#utility.yul\":5375:5490   */\n      and\n        /* \"#utility.yul\":5372:5513   */\n      iszero\n      tag_160\n      jumpi\n        /* \"#utility.yul\":5493:5511   */\n      tag_161\n      tag_89\n      jump\t// in\n    tag_161:\n        /* \"#utility.yul\":5372:5513   */\n    tag_160:\n        /* \"#utility.yul\":5697:5698   */\n      dup3\n        /* \"#utility.yul\":5629:5695   */\n      0x8000000000000000000000000000000000000000000000000000000000000000\n        /* \"#utility.yul\":5624:5699   */\n      sdiv\n        /* \"#utility.yul\":5621:5622   */\n      dup3\n        /* \"#utility.yul\":5617:5700   */\n      slt\n        /* \"#utility.yul\":5612:5613   */\n      0x00\n        /* \"#utility.yul\":5609:5610   */\n      dup5\n        /* \"#utility.yul\":5605:5614   */\n      sgt\n        /* \"#utility.yul\":5601:5602   */\n      0x00\n        /* \"#utility.yul\":5598:5599   */\n      dup5\n        /* \"#utility.yul\":5594:5603   */\n      slt\n        /* \"#utility.yul\":5590:5615   */\n      and\n        /* \"#utility.yul\":5586:5701   */\n      and\n        /* \"#utility.yul\":5583:5724   */\n      iszero\n      tag_162\n      jumpi\n        /* \"#utility.yul\":5704:5722   */\n      tag_163\n      tag_89\n      jump\t// in\n    tag_163:\n        /* \"#utility.yul\":5583:5724   */\n    tag_162:\n        /* \"#utility.yul\":5907:5908   */\n      dup3\n        /* \"#utility.yul\":5839:5905   */\n      0x7fffffffffffffffffffffffffffffffffffffffffffffffffffffffffffffff\n        /* \"#utility.yul\":5834:5909   */\n      sdiv\n        /* \"#utility.yul\":5831:5832   */\n      dup3\n        /* \"#utility.yul\":5827:5910   */\n      slt\n        /* \"#utility.yul\":5822:5823   */\n      0x00\n        /* \"#utility.yul\":5819:5820   */\n      dup5\n        /* \"#utility.yul\":5815:5824   */\n      slt\n        /* \"#utility.yul\":5811:5812   */\n      0x00\n        /* \"#utility.yul\":5808:5809   */\n      dup5\n        /* \"#utility.yul\":5804:5813   */\n      slt\n        /* \"#utility.yul\":5800:5825   */\n      and\n        /* \"#utility.yul\":5796:5911   */\n      and\n        /* \"#utility.yul\":5793:5934   */\n      iszero\n      tag_164\n      jumpi\n        /* \"#utility.yul\":5914:5932   */\n      tag_165\n      tag_89\n      jump\t// in\n    tag_165:\n        /* \"#utility.yul\":5793:5934   */\n    tag_164:\n        /* \"#utility.yul\":5962:5963   */\n      dup3\n        /* \"#utility.yul\":5959:5960   */\n      dup3\n        /* \"#utility.yul\":5955:5964   */\n      mul\n        /* \"#utility.yul\":5944:5964   */\n      swap1\n      pop\n        /* \"#utility.yul\":4979:5970   */\n      swap3\n      swap2\n      pop\n      pop\n      jump\t// out\n        /* \"#utility.yul\":5976:6145   */\n    tag_90:\n        /* \"#utility.yul\":6060:6071   */\n      0x00\n        /* \"#utility.yul\":6094:6100   */\n      dup3\n        /* \"#utility.yul\":6089:6092   */\n      dup3\n        /* \"#utility.yul\":6082:6101   */\n      mstore\n        /* \"#utility.yul\":6134:6138   */\n      0x20\n        /* \"#utility.yul\":6129:6132   */\n      dup3\n        /* \"#utility.yul\":6125:6139   */\n      add\n        /* \"#utility.yul\":6110:6139   */\n      swap1\n      pop\n        /* \"#utility.yul\":5976:6145   */\n      swap3\n      swap2\n      pop\n      pop\n      jump\t// out\n        /* \"#utility.yul\":6151:6319   */\n    tag_91:\n        /* \"#utility.yul\":6291:6311   */\n      0x4469646e27742073656e6420656e6f7567680000000000000000000000000000\n        /* \"#utility.yul\":6287:6288   */\n      0x00\n        /* \"#utility.yul\":6279:6285   */\n      dup3\n        /* \"#utility.yul\":6275:6289   */\n      add\n        /* \"#utility.yul\":6268:6312   */\n      mstore\n        /* \"#utility.yul\":6151:6319   */\n      pop\n      jump\t// out\n        /* \"#utility.yul\":6325:6691   */\n    tag_92:\n        /* \"#utility.yul\":6467:6470   */\n      0x00\n        /* \"#utility.yul\":6488:6555   */\n      tag_169\n        /* \"#utility.yul\":6552:6554   */\n      0x12\n        /* \"#utility.yul\":6547:6550   */\n      dup4\n        /* \"#utility.yul\":6488:6555   */\n      tag_90\n      jump\t// in\n    tag_169:\n        /* \"#utility.yul\":6481:6555   */\n      swap2\n      pop\n        /* \"#utility.yul\":6564:6657   */\n      tag_170\n        /* \"#utility.yul\":6653:6656   */\n      dup3\n        /* \"#utility.yul\":6564:6657   */\n      tag_91\n      jump\t// in\n    tag_170:\n        /* \"#utility.yul\":6682:6684   */\n      0x20\n        /* \"#utility.yul\":6677:6680   */\n      dup3\n        /* \"#utility.yul\":6673:6685   */\n      add\n        /* \"#utility.yul\":6666:6685   */\n      swap1\n      pop\n        /* \"#utility.yul\":6325:6691   */\n      swap2\n      swap1\n      pop\n      jump\t// out\n        /* \"#utility.yul\":6697:7116   */\n    tag_60:\n        /* \"#utility.yul\":6863:6867   */\n      0x00\n        /* \"#utility.yul\":6901:6903   */\n      0x20\n        /* \"#utility.yul\":6890:6899   */\n      dup3\n        /* \"#utility.yul\":6886:6904   */\n      add\n        /* \"#utility.yul\":6878:6904   */\n      swap1\n      pop\n        /* \"#utility.yul\":6950:6959   */\n      dup2\n        /* \"#utility.yul\":6944:6948   */\n      dup2\n        /* \"#utility.yul\":6940:6960   */\n      sub\n        /* \"#utility.yul\":6936:6937   */\n      0x00\n        /* \"#utility.yul\":6925:6934   */\n      dup4\n        /* \"#utility.yul\":6921:6938   */\n      add\n        /* \"#utility.yul\":6914:6961   */\n      mstore\n        /* \"#utility.yul\":6978:7109   */\n      tag_172\n        /* \"#utility.yul\":7104:7108   */\n      dup2\n        /* \"#utility.yul\":6978:7109   */\n      tag_92\n      jump\t// in\n    tag_172:\n        /* \"#utility.yul\":6970:7109   */\n      swap1\n      pop\n        /* \"#utility.yul\":6697:7116   */\n      swap2\n      swap1\n      pop\n      jump\t// out\n        /* \"#utility.yul\":7122:7470   */\n    tag_67:\n        /* \"#utility.yul\":7162:7169   */\n      0x00\n        /* \"#utility.yul\":7185:7205   */\n      tag_174\n        /* \"#utility.yul\":7203:7204   */\n      dup3\n        /* \"#utility.yul\":7185:7205   */\n      tag_70\n      jump\t// in\n    tag_174:\n        /* \"#utility.yul\":7180:7205   */\n      swap2\n      pop\n        /* \"#utility.yul\":7219:7239   */\n      tag_175\n        /* \"#utility.yul\":7237:7238   */\n      dup4\n        /* \"#utility.yul\":7219:7239   */\n      tag_70\n      jump\t// in\n    tag_175:\n        /* \"#utility.yul\":7214:7239   */\n      swap3\n      pop\n        /* \"#utility.yul\":7407:7408   */\n      dup2\n        /* \"#utility.yul\":7339:7405   */\n      0xffffffffffffffffffffffffffffffffffffffffffffffffffffffffffffffff\n        /* \"#utility.yul\":7335:7409   */\n      div\n        /* \"#utility.yul\":7332:7333   */\n      dup4\n        /* \"#utility.yul\":7329:7410   */\n      gt\n        /* \"#utility.yul\":7324:7325   */\n      dup3\n        /* \"#utility.yul\":7317:7326   */\n      iszero\n        /* \"#utility.yul\":7310:7327   */\n      iszero\n        /* \"#utility.yul\":7306:7411   */\n      and\n        /* \"#utility.yul\":7303:7434   */\n      iszero\n      tag_176\n      jumpi\n        /* \"#utility.yul\":7414:7432   */\n      tag_177\n      tag_89\n      jump\t// in\n    tag_177:\n        /* \"#utility.yul\":7303:7434   */\n    tag_176:\n        /* \"#utility.yul\":7462:7463   */\n      dup3\n        /* \"#utility.yul\":7459:7460   */\n      dup3\n        /* \"#utility.yul\":7455:7464   */\n      mul\n        /* \"#utility.yul\":7444:7464   */\n      swap1\n      pop\n        /* \"#utility.yul\":7122:7470   */\n      swap3\n      swap2\n      pop\n      pop\n      jump\t// out\n        /* \"#utility.yul\":7476:7656   */\n    tag_93:\n        /* \"#utility.yul\":7524:7601   */\n      0x4e487b7100000000000000000000000000000000000000000000000000000000\n        /* \"#utility.yul\":7521:7522   */\n      0x00\n        /* \"#utility.yul\":7514:7602   */\n      mstore\n        /* \"#utility.yul\":7621:7625   */\n      0x12\n        /* \"#utility.yul\":7618:7619   */\n      0x04\n        /* \"#utility.yul\":7611:7626   */\n      mstore\n        /* \"#utility.yul\":7645:7649   */\n      0x24\n        /* \"#utility.yul\":7642:7643   */\n      0x00\n        /* \"#utility.yul\":7635:7650   */\n      revert\n        /* \"#utility.yul\":7662:7847   */\n    tag_69:\n        /* \"#utility.yul\":7702:7703   */\n      0x00\n        /* \"#utility.yul\":7719:7739   */\n      tag_180\n        /* \"#utility.yul\":7737:7738   */\n      dup3\n        /* \"#utility.yul\":7719:7739   */\n      tag_70\n      jump\t// in\n    tag_180:\n        /* \"#utility.yul\":7714:7739   */\n      swap2\n      pop\n        /* \"#utility.yul\":7753:7773   */\n      tag_181\n        /* \"#utility.yul\":7771:7772   */\n      dup4\n        /* \"#utility.yul\":7753:7773   */\n      tag_70\n      jump\t// in\n    tag_181:\n        /* \"#utility.yul\":7748:7773   */\n      swap3\n      pop\n        /* \"#utility.yul\":7792:7793   */\n      dup3\n        /* \"#utility.yul\":7782:7817   */\n      tag_182\n      jumpi\n        /* \"#utility.yul\":7797:7815   */\n      tag_183\n      tag_93\n      jump\t// in\n    tag_183:\n        /* \"#utility.yul\":7782:7817   */\n    tag_182:\n        /* \"#utility.yul\":7839:7840   */\n      dup3\n        /* \"#utility.yul\":7836:7837   */\n      dup3\n        /* \"#utility.yul\":7832:7841   */\n      div\n        /* \"#utility.yul\":7827:7841   */\n      swap1\n      pop\n        /* \"#utility.yul\":7662:7847   */\n      swap3\n      swap2\n      pop\n      pop\n      jump\t// out\n\n    auxdata: 0xa2646970667358221220b1708ff91fef37f197654ebc4645bcfd50c5512b9425fb00b82399b5f30b00c264736f6c63430008080033\n}\n",
				"bytecode": {
					"linkReferences": {},
					"object": "60806040526802b5e3af16b188000060005534801561001d57600080fd5b506109c18061002d6000396000f3fe6080604052600436106100705760003560e01c806398d5fdca1161004e57806398d5fdca14610108578063b60d428814610133578063dc0d3dff1461013d578063e8a9a4c91461017a57610070565b8063098de820146100755780630d8e6e2c146100a05780633e47d6f3146100cb575b600080fd5b34801561008157600080fd5b5061008a6101b7565b60405161009791906104ab565b60405180910390f35b3480156100ac57600080fd5b506100b56101bd565b6040516100c291906104ab565b60405180910390f35b3480156100d757600080fd5b506100f260048036038101906100ed9190610529565b61025b565b6040516100ff91906104ab565b60405180910390f35b34801561011457600080fd5b5061011d610273565b60405161012a91906104ab565b60405180910390f35b61013b61032b565b005b34801561014957600080fd5b50610164600480360381019061015f9190610582565b610419565b60405161017191906105be565b60405180910390f35b34801561018657600080fd5b506101a1600480360381019061019c9190610582565b610458565b6040516101ae91906104ab565b60405180910390f35b60005481565b60008073d4a33860578de61dbabdc8bfdb98fd742fa7028e90508073ffffffffffffffffffffffffffffffffffffffff166354fd4d506040518163ffffffff1660e01b815260040160206040518083038186803b15801561021d57600080fd5b505afa158015610231573d6000803e3d6000fd5b505050506040513d601f19601f8201168201806040525081019061025591906105ee565b91505090565b60026020528060005260406000206000915090505481565b60008073d4a33860578de61dbabdc8bfdb98fd742fa7028e905060008173ffffffffffffffffffffffffffffffffffffffff1663feaf968c6040518163ffffffff1660e01b815260040160a06040518083038186803b1580156102d557600080fd5b505afa1580156102e9573d6000803e3d6000fd5b505050506040513d601f19601f8201168201806040525081019061030d9190610693565b5050509150506402540be40081610324919061073d565b9250505090565b600054341015610370576040517f08c379a0000000000000000000000000000000000000000000000000000000008152600401610367906108b1565b60405180910390fd5b6001339080600181540180825580915050600190039060005260206000200160009091909190916101000a81548173ffffffffffffffffffffffffffffffffffffffff021916908373ffffffffffffffffffffffffffffffffffffffff16021790555034600260003373ffffffffffffffffffffffffffffffffffffffff1673ffffffffffffffffffffffffffffffffffffffff16815260200190815260200160002081905550565b6001818154811061042957600080fd5b906000526020600020016000915054906101000a900473ffffffffffffffffffffffffffffffffffffffff1681565b600080610463610273565b90506000670de0b6b3a7640000848361047c91906108d1565b610486919061095a565b90508092505050919050565b6000819050919050565b6104a581610492565b82525050565b60006020820190506104c0600083018461049c565b92915050565b600080fd5b600073ffffffffffffffffffffffffffffffffffffffff82169050919050565b60006104f6826104cb565b9050919050565b610506816104eb565b811461051157600080fd5b50565b600081359050610523816104fd565b92915050565b60006020828403121561053f5761053e6104c6565b5b600061054d84828501610514565b91505092915050565b61055f81610492565b811461056a57600080fd5b50565b60008135905061057c81610556565b92915050565b600060208284031215610598576105976104c6565b5b60006105a68482850161056d565b91505092915050565b6105b8816104eb565b82525050565b60006020820190506105d360008301846105af565b92915050565b6000815190506105e881610556565b92915050565b600060208284031215610604576106036104c6565b5b6000610612848285016105d9565b91505092915050565b600069ffffffffffffffffffff82169050919050565b61063a8161061b565b811461064557600080fd5b50565b60008151905061065781610631565b92915050565b6000819050919050565b6106708161065d565b811461067b57600080fd5b50565b60008151905061068d81610667565b92915050565b600080600080600060a086880312156106af576106ae6104c6565b5b60006106bd88828901610648565b95505060206106ce8882890161067e565b94505060406106df888289016105d9565b93505060606106f0888289016105d9565b925050608061070188828901610648565b9150509295509295909350565b7f4e487b7100000000000000000000000000000000000000000000000000000000600052601160045260246000fd5b60006107488261065d565b91506107538361065d565b9250827f7fffffffffffffffffffffffffffffffffffffffffffffffffffffffffffffff04821160008413600084131616156107925761079161070e565b5b817f800000000000000000000000000000000000000000000000000000000000000005831260008412600084131616156107cf576107ce61070e565b5b827f8000000000000000000000000000000000000000000000000000000000000000058212600084136000841216161561080c5761080b61070e565b5b827f7fffffffffffffffffffffffffffffffffffffffffffffffffffffffffffffff05821260008412600084121616156108495761084861070e565b5b828202905092915050565b600082825260208201905092915050565b7f4469646e27742073656e6420656e6f7567680000000000000000000000000000600082015250565b600061089b601283610854565b91506108a682610865565b602082019050919050565b600060208201905081810360008301526108ca8161088e565b9050919050565b60006108dc82610492565b91506108e783610492565b9250817fffffffffffffffffffffffffffffffffffffffffffffffffffffffffffffffff04831182151516156109205761091f61070e565b5b828202905092915050565b7f4e487b7100000000000000000000000000000000000000000000000000000000600052601260045260246000fd5b600061096582610492565b915061097083610492565b9250826109805761097f61092b565b5b82820490509291505056fea2646970667358221220b1708ff91fef37f197654ebc4645bcfd50c5512b9425fb00b82399b5f30b00c264736f6c63430008080033",
					"opcodes": "PUSH1 0x80 PUSH1 0x40 MSTORE PUSH9 0x2B5E3AF16B1880000 PUSH1 0x0 SSTORE CALLVALUE DUP1 ISZERO PUSH2 0x1D JUMPI PUSH1 0x0 DUP1 REVERT JUMPDEST POP PUSH2 0x9C1 DUP1 PUSH2 0x2D PUSH1 0x0 CODECOPY PUSH1 0x0 RETURN INVALID PUSH1 0x80 PUSH1 0x40 MSTORE PUSH1 0x4 CALLDATASIZE LT PUSH2 0x70 JUMPI PUSH1 0x0 CALLDATALOAD PUSH1 0xE0 SHR DUP1 PUSH4 0x98D5FDCA GT PUSH2 0x4E JUMPI DUP1 PUSH4 0x98D5FDCA EQ PUSH2 0x108 JUMPI DUP1 PUSH4 0xB60D4288 EQ PUSH2 0x133 JUMPI DUP1 PUSH4 0xDC0D3DFF EQ PUSH2 0x13D JUMPI DUP1 PUSH4 0xE8A9A4C9 EQ PUSH2 0x17A JUMPI PUSH2 0x70 JUMP JUMPDEST DUP1 PUSH4 0x98DE820 EQ PUSH2 0x75 JUMPI DUP1 PUSH4 0xD8E6E2C EQ PUSH2 0xA0 JUMPI DUP1 PUSH4 0x3E47D6F3 EQ PUSH2 0xCB JUMPI JUMPDEST PUSH1 0x0 DUP1 REVERT JUMPDEST CALLVALUE DUP1 ISZERO PUSH2 0x81 JUMPI PUSH1 0x0 DUP1 REVERT JUMPDEST POP PUSH2 0x8A PUSH2 0x1B7 JUMP JUMPDEST PUSH1 0x40 MLOAD PUSH2 0x97 SWAP2 SWAP1 PUSH2 0x4AB JUMP JUMPDEST PUSH1 0x40 MLOAD DUP1 SWAP2 SUB SWAP1 RETURN JUMPDEST CALLVALUE DUP1 ISZERO PUSH2 0xAC JUMPI PUSH1 0x0 DUP1 REVERT JUMPDEST POP PUSH2 0xB5 PUSH2 0x1BD JUMP JUMPDEST PUSH1 0x40 MLOAD PUSH2 0xC2 SWAP2 SWAP1 PUSH2 0x4AB JUMP JUMPDEST PUSH1 0x40 MLOAD DUP1 SWAP2 SUB SWAP1 RETURN JUMPDEST CALLVALUE DUP1 ISZERO PUSH2 0xD7 JUMPI PUSH1 0x0 DUP1 REVERT JUMPDEST POP PUSH2 0xF2 PUSH1 0x4 DUP1 CALLDATASIZE SUB DUP2 ADD SWAP1 PUSH2 0xED SWAP2 SWAP1 PUSH2 0x529 JUMP JUMPDEST PUSH2 0x25B JUMP JUMPDEST PUSH1 0x40 MLOAD PUSH2 0xFF SWAP2 SWAP1 PUSH2 0x4AB JUMP JUMPDEST PUSH1 0x40 MLOAD DUP1 SWAP2 SUB SWAP1 RETURN JUMPDEST CALLVALUE DUP1 ISZERO PUSH2 0x114 JUMPI PUSH1 0x0 DUP1 REVERT JUMPDEST POP PUSH2 0x11D PUSH2 0x273 JUMP JUMPDEST PUSH1 0x40 MLOAD PUSH2 0x12A SWAP2 SWAP1 PUSH2 0x4AB JUMP JUMPDEST PUSH1 0x40 MLOAD DUP1 SWAP2 SUB SWAP1 RETURN JUMPDEST PUSH2 0x13B PUSH2 0x32B JUMP JUMPDEST STOP JUMPDEST CALLVALUE DUP1 ISZERO PUSH2 0x149 JUMPI PUSH1 0x0 DUP1 REVERT JUMPDEST POP PUSH2 0x164 PUSH1 0x4 DUP1 CALLDATASIZE SUB DUP2 ADD SWAP1 PUSH2 0x15F SWAP2 SWAP1 PUSH2 0x582 JUMP JUMPDEST PUSH2 0x419 JUMP JUMPDEST PUSH1 0x40 MLOAD PUSH2 0x171 SWAP2 SWAP1 PUSH2 0x5BE JUMP JUMPDEST PUSH1 0x40 MLOAD DUP1 SWAP2 SUB SWAP1 RETURN JUMPDEST CALLVALUE DUP1 ISZERO PUSH2 0x186 JUMPI PUSH1 0x0 DUP1 REVERT JUMPDEST POP PUSH2 0x1A1 PUSH1 0x4 DUP1 CALLDATASIZE SUB DUP2 ADD SWAP1 PUSH2 0x19C SWAP2 SWAP1 PUSH2 0x582 JUMP JUMPDEST PUSH2 0x458 JUMP JUMPDEST PUSH1 0x40 MLOAD PUSH2 0x1AE SWAP2 SWAP1 PUSH2 0x4AB JUMP JUMPDEST PUSH1 0x40 MLOAD DUP1 SWAP2 SUB SWAP1 RETURN JUMPDEST PUSH1 0x0 SLOAD DUP2 JUMP JUMPDEST PUSH1 0x0 DUP1 PUSH20 0xD4A33860578DE61DBABDC8BFDB98FD742FA7028E SWAP1 POP DUP1 PUSH20 0xFFFFFFFFFFFFFFFFFFFFFFFFFFFFFFFFFFFFFFFF AND PUSH4 0x54FD4D50 PUSH1 0x40 MLOAD DUP2 PUSH4 0xFFFFFFFF AND PUSH1 0xE0 SHL DUP2 MSTORE PUSH1 0x4 ADD PUSH1 0x20 PUSH1 0x40 MLOAD DUP1 DUP4 SUB DUP2 DUP7 DUP1 EXTCODESIZE ISZERO DUP1 ISZERO PUSH2 0x21D JUMPI PUSH1 0x0 DUP1 REVERT JUMPDEST POP GAS STATICCALL ISZERO DUP1 ISZERO PUSH2 0x231 JUMPI RETURNDATASIZE PUSH1 0x0 DUP1 RETURNDATACOPY RETURNDATASIZE PUSH1 0x0 REVERT JUMPDEST POP POP POP POP PUSH1 0x40 MLOAD RETURNDATASIZE PUSH1 0x1F NOT PUSH1 0x1F DUP3 ADD AND DUP3 ADD DUP1 PUSH1 0x40 MSTORE POP DUP2 ADD SWAP1 PUSH2 0x255 SWAP2 SWAP1 PUSH2 0x5EE JUMP JUMPDEST SWAP2 POP POP SWAP1 JUMP JUMPDEST PUSH1 0x2 PUSH1 0x20 MSTORE DUP1 PUSH1 0x0 MSTORE PUSH1 0x40 PUSH1 0x0 KECCAK256 PUSH1 0x0 SWAP2 POP SWAP1 POP SLOAD DUP2 JUMP JUMPDEST PUSH1 0x0 DUP1 PUSH20 0xD4A33860578DE61DBABDC8BFDB98FD742FA7028E SWAP1 POP PUSH1 0x0 DUP2 PUSH20 0xFFFFFFFFFFFFFFFFFFFFFFFFFFFFFFFFFFFFFFFF AND PUSH4 0xFEAF968C PUSH1 0x40 MLOAD DUP2 PUSH4 0xFFFFFFFF AND PUSH1 0xE0 SHL DUP2 MSTORE PUSH1 0x4 ADD PUSH1 0xA0 PUSH1 0x40 MLOAD DUP1 DUP4 SUB DUP2 DUP7 DUP1 EXTCODESIZE ISZERO DUP1 ISZERO PUSH2 0x2D5 JUMPI PUSH1 0x0 DUP1 REVERT JUMPDEST POP GAS STATICCALL ISZERO DUP1 ISZERO PUSH2 0x2E9 JUMPI RETURNDATASIZE PUSH1 0x0 DUP1 RETURNDATACOPY RETURNDATASIZE PUSH1 0x0 REVERT JUMPDEST POP POP POP POP PUSH1 0x40 MLOAD RETURNDATASIZE PUSH1 0x1F NOT PUSH1 0x1F DUP3 ADD AND DUP3 ADD DUP1 PUSH1 0x40 MSTORE POP DUP2 ADD SWAP1 PUSH2 0x30D SWAP2 SWAP1 PUSH2 0x693 JUMP JUMPDEST POP POP POP SWAP2 POP POP PUSH5 0x2540BE400 DUP2 PUSH2 0x324 SWAP2 SWAP1 PUSH2 0x73D JUMP JUMPDEST SWAP3 POP POP POP SWAP1 JUMP JUMPDEST PUSH1 0x0 SLOAD CALLVALUE LT ISZERO PUSH2 0x370 JUMPI PUSH1 0x40 MLOAD PUSH32 0x8C379A000000000000000000000000000000000000000000000000000000000 DUP2 MSTORE PUSH1 0x4 ADD PUSH2 0x367 SWAP1 PUSH2 0x8B1 JUMP JUMPDEST PUSH1 0x40 MLOAD DUP1 SWAP2 SUB SWAP1 REVERT JUMPDEST PUSH1 0x1 CALLER SWAP1 DUP1 PUSH1 0x1 DUP2 SLOAD ADD DUP1 DUP3 SSTORE DUP1 SWAP2 POP POP PUSH1 0x1 SWAP1 SUB SWAP1 PUSH1 0x0 MSTORE PUSH1 0x20 PUSH1 0x0 KECCAK256 ADD PUSH1 0x0 SWAP1 SWAP2 SWAP1 SWAP2 SWAP1 SWAP2 PUSH2 0x100 EXP DUP2 SLOAD DUP2 PUSH20 0xFFFFFFFFFFFFFFFFFFFFFFFFFFFFFFFFFFFFFFFF MUL NOT AND SWAP1 DUP4 PUSH20 0xFFFFFFFFFFFFFFFFFFFFFFFFFFFFFFFFFFFFFFFF AND MUL OR SWAP1 SSTORE POP CALLVALUE PUSH1 0x2 PUSH1 0x0 CALLER PUSH20 0xFFFFFFFFFFFFFFFFFFFFFFFFFFFFFFFFFFFFFFFF AND PUSH20 0xFFFFFFFFFFFFFFFFFFFFFFFFFFFFFFFFFFFFFFFF AND DUP2 MSTORE PUSH1 0x20 ADD SWAP1 DUP2 MSTORE PUSH1 0x20 ADD PUSH1 0x0 KECCAK256 DUP2 SWAP1 SSTORE POP JUMP JUMPDEST PUSH1 0x1 DUP2 DUP2 SLOAD DUP2 LT PUSH2 0x429 JUMPI PUSH1 0x0 DUP1 REVERT JUMPDEST SWAP1 PUSH1 0x0 MSTORE PUSH1 0x20 PUSH1 0x0 KECCAK256 ADD PUSH1 0x0 SWAP2 POP SLOAD SWAP1 PUSH2 0x100 EXP SWAP1 DIV PUSH20 0xFFFFFFFFFFFFFFFFFFFFFFFFFFFFFFFFFFFFFFFF AND DUP2 JUMP JUMPDEST PUSH1 0x0 DUP1 PUSH2 0x463 PUSH2 0x273 JUMP JUMPDEST SWAP1 POP PUSH1 0x0 PUSH8 0xDE0B6B3A7640000 DUP5 DUP4 PUSH2 0x47C SWAP2 SWAP1 PUSH2 0x8D1 JUMP JUMPDEST PUSH2 0x486 SWAP2 SWAP1 PUSH2 0x95A JUMP JUMPDEST SWAP1 POP DUP1 SWAP3 POP POP POP SWAP2 SWAP1 POP JUMP JUMPDEST PUSH1 0x0 DUP2 SWAP1 POP SWAP2 SWAP1 POP JUMP JUMPDEST PUSH2 0x4A5 DUP2 PUSH2 0x492 JUMP JUMPDEST DUP3 MSTORE POP POP JUMP JUMPDEST PUSH1 0x0 PUSH1 0x20 DUP3 ADD SWAP1 POP PUSH2 0x4C0 PUSH1 0x0 DUP4 ADD DUP5 PUSH2 0x49C JUMP JUMPDEST SWAP3 SWAP2 POP POP JUMP JUMPDEST PUSH1 0x0 DUP1 REVERT JUMPDEST PUSH1 0x0 PUSH20 0xFFFFFFFFFFFFFFFFFFFFFFFFFFFFFFFFFFFFFFFF DUP3 AND SWAP1 POP SWAP2 SWAP1 POP JUMP JUMPDEST PUSH1 0x0 PUSH2 0x4F6 DUP3 PUSH2 0x4CB JUMP JUMPDEST SWAP1 POP SWAP2 SWAP1 POP JUMP JUMPDEST PUSH2 0x506 DUP2 PUSH2 0x4EB JUMP JUMPDEST DUP2 EQ PUSH2 0x511 JUMPI PUSH1 0x0 DUP1 REVERT JUMPDEST POP JUMP JUMPDEST PUSH1 0x0 DUP2 CALLDATALOAD SWAP1 POP PUSH2 0x523 DUP2 PUSH2 0x4FD JUMP JUMPDEST SWAP3 SWAP2 POP POP JUMP JUMPDEST PUSH1 0x0 PUSH1 0x20 DUP3 DUP5 SUB SLT ISZERO PUSH2 0x53F JUMPI PUSH2 0x53E PUSH2 0x4C6 JUMP JUMPDEST JUMPDEST PUSH1 0x0 PUSH2 0x54D DUP5 DUP3 DUP6 ADD PUSH2 0x514 JUMP JUMPDEST SWAP2 POP POP SWAP3 SWAP2 POP POP JUMP JUMPDEST PUSH2 0x55F DUP2 PUSH2 0x492 JUMP JUMPDEST DUP2 EQ PUSH2 0x56A JUMPI PUSH1 0x0 DUP1 REVERT JUMPDEST POP JUMP JUMPDEST PUSH1 0x0 DUP2 CALLDATALOAD SWAP1 POP PUSH2 0x57C DUP2 PUSH2 0x556 JUMP JUMPDEST SWAP3 SWAP2 POP POP JUMP JUMPDEST PUSH1 0x0 PUSH1 0x20 DUP3 DUP5 SUB SLT ISZERO PUSH2 0x598 JUMPI PUSH2 0x597 PUSH2 0x4C6 JUMP JUMPDEST JUMPDEST PUSH1 0x0 PUSH2 0x5A6 DUP5 DUP3 DUP6 ADD PUSH2 0x56D JUMP JUMPDEST SWAP2 POP POP SWAP3 SWAP2 POP POP JUMP JUMPDEST PUSH2 0x5B8 DUP2 PUSH2 0x4EB JUMP JUMPDEST DUP3 MSTORE POP POP JUMP JUMPDEST PUSH1 0x0 PUSH1 0x20 DUP3 ADD SWAP1 POP PUSH2 0x5D3 PUSH1 0x0 DUP4 ADD DUP5 PUSH2 0x5AF JUMP JUMPDEST SWAP3 SWAP2 POP POP JUMP JUMPDEST PUSH1 0x0 DUP2 MLOAD SWAP1 POP PUSH2 0x5E8 DUP2 PUSH2 0x556 JUMP JUMPDEST SWAP3 SWAP2 POP POP JUMP JUMPDEST PUSH1 0x0 PUSH1 0x20 DUP3 DUP5 SUB SLT ISZERO PUSH2 0x604 JUMPI PUSH2 0x603 PUSH2 0x4C6 JUMP JUMPDEST JUMPDEST PUSH1 0x0 PUSH2 0x612 DUP5 DUP3 DUP6 ADD PUSH2 0x5D9 JUMP JUMPDEST SWAP2 POP POP SWAP3 SWAP2 POP POP JUMP JUMPDEST PUSH1 0x0 PUSH10 0xFFFFFFFFFFFFFFFFFFFF DUP3 AND SWAP1 POP SWAP2 SWAP1 POP JUMP JUMPDEST PUSH2 0x63A DUP2 PUSH2 0x61B JUMP JUMPDEST DUP2 EQ PUSH2 0x645 JUMPI PUSH1 0x0 DUP1 REVERT JUMPDEST POP JUMP JUMPDEST PUSH1 0x0 DUP2 MLOAD SWAP1 POP PUSH2 0x657 DUP2 PUSH2 0x631 JUMP JUMPDEST SWAP3 SWAP2 POP POP JUMP JUMPDEST PUSH1 0x0 DUP2 SWAP1 POP SWAP2 SWAP1 POP JUMP JUMPDEST PUSH2 0x670 DUP2 PUSH2 0x65D JUMP JUMPDEST DUP2 EQ PUSH2 0x67B JUMPI PUSH1 0x0 DUP1 REVERT JUMPDEST POP JUMP JUMPDEST PUSH1 0x0 DUP2 MLOAD SWAP1 POP PUSH2 0x68D DUP2 PUSH2 0x667 JUMP JUMPDEST SWAP3 SWAP2 POP POP JUMP JUMPDEST PUSH1 0x0 DUP1 PUSH1 0x0 DUP1 PUSH1 0x0 PUSH1 0xA0 DUP7 DUP9 SUB SLT ISZERO PUSH2 0x6AF JUMPI PUSH2 0x6AE PUSH2 0x4C6 JUMP JUMPDEST JUMPDEST PUSH1 0x0 PUSH2 0x6BD DUP9 DUP3 DUP10 ADD PUSH2 0x648 JUMP JUMPDEST SWAP6 POP POP PUSH1 0x20 PUSH2 0x6CE DUP9 DUP3 DUP10 ADD PUSH2 0x67E JUMP JUMPDEST SWAP5 POP POP PUSH1 0x40 PUSH2 0x6DF DUP9 DUP3 DUP10 ADD PUSH2 0x5D9 JUMP JUMPDEST SWAP4 POP POP PUSH1 0x60 PUSH2 0x6F0 DUP9 DUP3 DUP10 ADD PUSH2 0x5D9 JUMP JUMPDEST SWAP3 POP POP PUSH1 0x80 PUSH2 0x701 DUP9 DUP3 DUP10 ADD PUSH2 0x648 JUMP JUMPDEST SWAP2 POP POP SWAP3 SWAP6 POP SWAP3 SWAP6 SWAP1 SWAP4 POP JUMP JUMPDEST PUSH32 0x4E487B7100000000000000000000000000000000000000000000000000000000 PUSH1 0x0 MSTORE PUSH1 0x11 PUSH1 0x4 MSTORE PUSH1 0x24 PUSH1 0x0 REVERT JUMPDEST PUSH1 0x0 PUSH2 0x748 DUP3 PUSH2 0x65D JUMP JUMPDEST SWAP2 POP PUSH2 0x753 DUP4 PUSH2 0x65D JUMP JUMPDEST SWAP3 POP DUP3 PUSH32 0x7FFFFFFFFFFFFFFFFFFFFFFFFFFFFFFFFFFFFFFFFFFFFFFFFFFFFFFFFFFFFFFF DIV DUP3 GT PUSH1 0x0 DUP5 SGT PUSH1 0x0 DUP5 SGT AND AND ISZERO PUSH2 0x792 JUMPI PUSH2 0x791 PUSH2 0x70E JUMP JUMPDEST JUMPDEST DUP2 PUSH32 0x8000000000000000000000000000000000000000000000000000000000000000 SDIV DUP4 SLT PUSH1 0x0 DUP5 SLT PUSH1 0x0 DUP5 SGT AND AND ISZERO PUSH2 0x7CF JUMPI PUSH2 0x7CE PUSH2 0x70E JUMP JUMPDEST JUMPDEST DUP3 PUSH32 0x8000000000000000000000000000000000000000000000000000000000000000 SDIV DUP3 SLT PUSH1 0x0 DUP5 SGT PUSH1 0x0 DUP5 SLT AND AND ISZERO PUSH2 0x80C JUMPI PUSH2 0x80B PUSH2 0x70E JUMP JUMPDEST JUMPDEST DUP3 PUSH32 0x7FFFFFFFFFFFFFFFFFFFFFFFFFFFFFFFFFFFFFFFFFFFFFFFFFFFFFFFFFFFFFFF SDIV DUP3 SLT PUSH1 0x0 DUP5 SLT PUSH1 0x0 DUP5 SLT AND AND ISZERO PUSH2 0x849 JUMPI PUSH2 0x848 PUSH2 0x70E JUMP JUMPDEST JUMPDEST DUP3 DUP3 MUL SWAP1 POP SWAP3 SWAP2 POP POP JUMP JUMPDEST PUSH1 0x0 DUP3 DUP3 MSTORE PUSH1 0x20 DUP3 ADD SWAP1 POP SWAP3 SWAP2 POP POP JUMP JUMPDEST PUSH32 0x4469646E27742073656E6420656E6F7567680000000000000000000000000000 PUSH1 0x0 DUP3 ADD MSTORE POP JUMP JUMPDEST PUSH1 0x0 PUSH2 0x89B PUSH1 0x12 DUP4 PUSH2 0x854 JUMP JUMPDEST SWAP2 POP PUSH2 0x8A6 DUP3 PUSH2 0x865 JUMP JUMPDEST PUSH1 0x20 DUP3 ADD SWAP1 POP SWAP2 SWAP1 POP JUMP JUMPDEST PUSH1 0x0 PUSH1 0x20 DUP3 ADD SWAP1 POP DUP2 DUP2 SUB PUSH1 0x0 DUP4 ADD MSTORE PUSH2 0x8CA DUP2 PUSH2 0x88E JUMP JUMPDEST SWAP1 POP SWAP2 SWAP1 POP JUMP JUMPDEST PUSH1 0x0 PUSH2 0x8DC DUP3 PUSH2 0x492 JUMP JUMPDEST SWAP2 POP PUSH2 0x8E7 DUP4 PUSH2 0x492 JUMP JUMPDEST SWAP3 POP DUP2 PUSH32 0xFFFFFFFFFFFFFFFFFFFFFFFFFFFFFFFFFFFFFFFFFFFFFFFFFFFFFFFFFFFFFFFF DIV DUP4 GT DUP3 ISZERO ISZERO AND ISZERO PUSH2 0x920 JUMPI PUSH2 0x91F PUSH2 0x70E JUMP JUMPDEST JUMPDEST DUP3 DUP3 MUL SWAP1 POP SWAP3 SWAP2 POP POP JUMP JUMPDEST PUSH32 0x4E487B7100000000000000000000000000000000000000000000000000000000 PUSH1 0x0 MSTORE PUSH1 0x12 PUSH1 0x4 MSTORE PUSH1 0x24 PUSH1 0x0 REVERT JUMPDEST PUSH1 0x0 PUSH2 0x965 DUP3 PUSH2 0x492 JUMP JUMPDEST SWAP2 POP PUSH2 0x970 DUP4 PUSH2 0x492 JUMP JUMPDEST SWAP3 POP DUP3 PUSH2 0x980 JUMPI PUSH2 0x97F PUSH2 0x92B JUMP JUMPDEST JUMPDEST DUP3 DUP3 DIV SWAP1 POP SWAP3 SWAP2 POP POP JUMP INVALID LOG2 PUSH5 0x6970667358 0x22 SLT KECCAK256 0xB1 PUSH17 0x8FF91FEF37F197654EBC4645BCFD50C551 0x2B SWAP5 0x25 0xFB STOP 0xB8 0x23 SWAP10 0xB5 RETURN SIGNEXTEND STOP 0xC2 PUSH5 0x736F6C6343 STOP ADDMOD ADDMOD STOP CALLER "
				},
				"gasEstimates": {
					"creation": {
						"codeDepositCost": "499400",
						"executionCost": "22643",
						"totalCost": "522043"
					},
					"external": {
						"addressToAmountFunded(address)": "2859",
						"fund()": "73047",
						"funders(uint256)": "5000",
						"getConversrionRate(uint256)": "infinite",
						"getPrice()": "infinite",
						"getVersion()": "infinite",
						"minimumUsd()": "2430"
					}
				},
				"methodIdentifiers": {
					"addressToAmountFunded(address)": "3e47d6f3",
					"fund()": "b60d4288",
					"funders(uint256)": "dc0d3dff",
					"getConversrionRate(uint256)": "e8a9a4c9",
					"getPrice()": "98d5fdca",
					"getVersion()": "0d8e6e2c",
					"minimumUsd()": "098de820"
				}
			},
			"storageLayout": {
				"storage": [
					{
						"astId": 53,
						"contract": "contracts/Basic_Fundme/FundMe.sol:FundMe",
						"label": "minimumUsd",
						"offset": 0,
						"slot": "0",
						"type": "t_uint256"
					},
					{
						"astId": 56,
						"contract": "contracts/Basic_Fundme/FundMe.sol:FundMe",
						"label": "funders",
						"offset": 0,
						"slot": "1",
						"type": "t_array(t_address)dyn_storage"
					},
					{
						"astId": 60,
						"contract": "contracts/Basic_Fundme/FundMe.sol:FundMe",
						"label": "addressToAmountFunded",
						"offset": 0,
						"slot": "2",
						"type": "t_mapping(t_address,t_uint256)"
					}
				],
				"types": {
					"t_address": {
						"encoding": "inplace",
						"label": "address",
						"numberOfBytes": "20"
					},
					"t_array(t_address)dyn_storage": {
						"base": "t_address",
						"encoding": "dynamic_array",
						"label": "address[]",
						"numberOfBytes": "32"
					},
					"t_mapping(t_address,t_uint256)": {
						"encoding": "mapping",
						"key": "t_address",
						"label": "mapping(address => uint256)",
						"numberOfBytes": "32",
						"value": "t_uint256"
					},
					"t_uint256": {
						"encoding": "inplace",
						"label": "uint256",
						"numberOfBytes": "32"
					}
				}
			},
			"userdoc": {
				"kind": "user",
				"methods": {},
				"version": 1
			}
		}
	}
}